{
  "contractName": "EdcoinStake",
  "abi": [
    {
      "inputs": [
        {
          "internalType": "address",
          "name": "_EDC",
          "type": "address"
        }
      ],
      "stateMutability": "nonpayable",
      "type": "constructor"
    },
    {
      "anonymous": false,
      "inputs": [
        {
          "indexed": false,
          "internalType": "address",
          "name": "staker",
          "type": "address"
        },
        {
          "indexed": false,
          "internalType": "uint256",
          "name": "reward",
          "type": "uint256"
        }
      ],
      "name": "CLAIMEDREWARD",
      "type": "event"
    },
    {
      "anonymous": false,
      "inputs": [
        {
          "indexed": true,
          "internalType": "address",
          "name": "_from",
          "type": "address"
        },
        {
          "indexed": true,
          "internalType": "address",
          "name": "_to",
          "type": "address"
        }
      ],
      "name": "OwnershipTransferred",
      "type": "event"
    },
    {
      "anonymous": false,
      "inputs": [
        {
          "indexed": false,
          "internalType": "uint256",
          "name": "round",
          "type": "uint256"
        },
        {
          "indexed": false,
          "internalType": "uint256",
          "name": "tokens",
          "type": "uint256"
        },
        {
          "indexed": false,
          "internalType": "address",
          "name": "sender",
          "type": "address"
        }
      ],
      "name": "PAYOUT",
      "type": "event"
    },
    {
      "anonymous": false,
      "inputs": [
        {
          "indexed": false,
          "internalType": "address",
          "name": "staker",
          "type": "address"
        },
        {
          "indexed": false,
          "internalType": "uint256",
          "name": "tokens",
          "type": "uint256"
        },
        {
          "indexed": false,
          "internalType": "uint256",
          "name": "stakingFee",
          "type": "uint256"
        }
      ],
      "name": "STAKED",
      "type": "event"
    },
    {
      "anonymous": false,
      "inputs": [
        {
          "indexed": false,
          "internalType": "address",
          "name": "staker",
          "type": "address"
        },
        {
          "indexed": false,
          "internalType": "uint256",
          "name": "tokens",
          "type": "uint256"
        },
        {
          "indexed": false,
          "internalType": "uint256",
          "name": "unstakingFee",
          "type": "uint256"
        }
      ],
      "name": "UNSTAKED",
      "type": "event"
    },
    {
      "inputs": [],
      "name": "EDC",
      "outputs": [
        {
          "internalType": "address",
          "name": "",
          "type": "address"
        }
      ],
      "stateMutability": "view",
      "type": "function",
      "constant": true
    },
    {
      "inputs": [],
      "name": "owner",
      "outputs": [
        {
          "internalType": "address payable",
          "name": "",
          "type": "address"
        }
      ],
      "stateMutability": "view",
      "type": "function",
      "constant": true
    },
    {
      "inputs": [
        {
          "internalType": "uint256",
          "name": "",
          "type": "uint256"
        }
      ],
      "name": "payouts",
      "outputs": [
        {
          "internalType": "uint256",
          "name": "",
          "type": "uint256"
        }
      ],
      "stateMutability": "view",
      "type": "function",
      "constant": true
    },
    {
      "inputs": [],
      "name": "round",
      "outputs": [
        {
          "internalType": "uint256",
          "name": "",
          "type": "uint256"
        }
      ],
      "stateMutability": "view",
      "type": "function",
      "constant": true
    },
    {
      "inputs": [],
      "name": "totalDividends",
      "outputs": [
        {
          "internalType": "uint256",
          "name": "",
          "type": "uint256"
        }
      ],
      "stateMutability": "view",
      "type": "function",
      "constant": true
    },
    {
      "inputs": [],
      "name": "totalStakes",
      "outputs": [
        {
          "internalType": "uint256",
          "name": "",
          "type": "uint256"
        }
      ],
      "stateMutability": "view",
      "type": "function",
      "constant": true
    },
    {
      "inputs": [
        {
          "internalType": "address payable",
          "name": "_newOwner",
          "type": "address"
        }
      ],
      "name": "transferOwnership",
      "outputs": [],
      "stateMutability": "nonpayable",
      "type": "function"
    },
    {
      "inputs": [
        {
          "internalType": "uint256",
          "name": "tokens",
          "type": "uint256"
        }
      ],
      "name": "STAKE",
      "outputs": [],
      "stateMutability": "nonpayable",
      "type": "function"
    },
    {
      "inputs": [
        {
          "internalType": "uint256",
          "name": "tokens",
          "type": "uint256"
        }
      ],
      "name": "ADDFUNDS",
      "outputs": [],
      "stateMutability": "nonpayable",
      "type": "function"
    },
    {
      "inputs": [],
      "name": "CLAIMREWARD",
      "outputs": [],
      "stateMutability": "nonpayable",
      "type": "function"
    },
    {
      "inputs": [
        {
          "internalType": "address",
          "name": "staker",
          "type": "address"
        }
      ],
      "name": "getPendingReward",
      "outputs": [
        {
          "internalType": "uint256",
          "name": "_pendingReward",
          "type": "uint256"
        }
      ],
      "stateMutability": "view",
      "type": "function",
      "constant": true
    },
    {
      "inputs": [
        {
          "internalType": "uint256",
          "name": "tokens",
          "type": "uint256"
        }
      ],
      "name": "WITHDRAW",
      "outputs": [],
      "stateMutability": "nonpayable",
      "type": "function"
    },
    {
      "inputs": [
        {
          "internalType": "address",
          "name": "staker",
          "type": "address"
        }
      ],
      "name": "yourStakedEDC",
      "outputs": [
        {
          "internalType": "uint256",
          "name": "stakedEDC",
          "type": "uint256"
        }
      ],
      "stateMutability": "view",
      "type": "function",
      "constant": true
    },
    {
      "inputs": [
        {
          "internalType": "address",
          "name": "user",
          "type": "address"
        }
      ],
      "name": "yourEDCBalance",
      "outputs": [
        {
          "internalType": "uint256",
          "name": "EDCBalance",
          "type": "uint256"
        }
      ],
      "stateMutability": "view",
      "type": "function",
      "constant": true
    }
  ],
  "bytecode": "0x608060405260006002556019600355601960045560006005556000600655600c600a0a600755600160085534801561003657600080fd5b506040516120943803806120948339818101604052602081101561005957600080fd5b8101908080519060200190929190505050336000806101000a81548173ffffffffffffffffffffffffffffffffffffffff021916908373ffffffffffffffffffffffffffffffffffffffff16021790555080600160006101000a81548173ffffffffffffffffffffffffffffffffffffffff021916908373ffffffffffffffffffffffffffffffffffffffff16021790555050611f99806100fb6000396000f3fe608060405234801561001057600080fd5b50600436106100ea5760003560e01c80638da5cb5b1161008c578063b53d6c2411610066578063b53d6c2414610341578063bf9befb11461036f578063ca84d5911461038d578063f2fde38b146103bb576100ea565b80638da5cb5b1461028f578063945d6486146102d9578063997664d714610323576100ea565b80634baf782e116100c85780634baf782e1461017d5780634df9d6ba14610187578063530d8129146101df57806377e7c14614610237576100ea565b8063146ca531146100ef57806329652e861461010d5780632c75bcda1461014f575b600080fd5b6100f76103ff565b6040518082815260200191505060405180910390f35b6101396004803603602081101561012357600080fd5b8101908080359060200190929190505050610405565b6040518082815260200191505060405180910390f35b61017b6004803603602081101561016557600080fd5b810190808035906020019092919050505061041d565b005b610185610908565b005b6101c96004803603602081101561019d57600080fd5b81019080803573ffffffffffffffffffffffffffffffffffffffff169060200190929190505050610c81565b6040518082815260200191505060405180910390f35b610221600480360360208110156101f557600080fd5b81019080803573ffffffffffffffffffffffffffffffffffffffff169060200190929190505050610e78565b6040518082815260200191505060405180910390f35b6102796004803603602081101561024d57600080fd5b81019080803573ffffffffffffffffffffffffffffffffffffffff169060200190929190505050610f5b565b6040518082815260200191505060405180910390f35b610297610fa7565b604051808273ffffffffffffffffffffffffffffffffffffffff1673ffffffffffffffffffffffffffffffffffffffff16815260200191505060405180910390f35b6102e1610fcc565b604051808273ffffffffffffffffffffffffffffffffffffffff1673ffffffffffffffffffffffffffffffffffffffff16815260200191505060405180910390f35b61032b610ff2565b6040518082815260200191505060405180910390f35b61036d6004803603602081101561035757600080fd5b8101908080359060200190929190505050610ff8565b005b610377611171565b6040518082815260200191505060405180910390f35b6103b9600480360360208110156103a357600080fd5b8101908080359060200190929190505050611177565b005b6103fd600480360360208110156103d157600080fd5b81019080803573ffffffffffffffffffffffffffffffffffffffff1690602001909291905050506115d6565b005b60085481565b600a6020528060005260406000206000915090505481565b80600960003373ffffffffffffffffffffffffffffffffffffffff1673ffffffffffffffffffffffffffffffffffffffff168152602001908152602001600020600001541015801561046f5750600081115b6104e1576040517f08c379a00000000000000000000000000000000000000000000000000000000081526004018080602001828103825260208152602001807f496e76616c696420746f6b656e20616d6f756e7420746f20776974686472617781525060200191505060405180910390fd5b6000610513600a6105056004546104f7866116cc565b61172090919063ffffffff16565b6117a690919063ffffffff16565b90506000610520336117f0565b905080600960003373ffffffffffffffffffffffffffffffffffffffff1673ffffffffffffffffffffffffffffffffffffffff16815260200190815260200160002060040160008282540192505081905550600160009054906101000a900473ffffffffffffffffffffffffffffffffffffffff1673ffffffffffffffffffffffffffffffffffffffff1663a9059cbb336105c485876119ee90919063ffffffff16565b6040518363ffffffff1660e01b8152600401808373ffffffffffffffffffffffffffffffffffffffff1673ffffffffffffffffffffffffffffffffffffffff16815260200182815260200192505050602060405180830381600087803b15801561062d57600080fd5b505af1158015610641573d6000803e3d6000fd5b505050506040513d602081101561065757600080fd5b81019080805190602001909291905050506106da576040517f08c379a000000000000000000000000000000000000000000000000000000000815260040180806020018281038252601a8152602001807f4572726f7220696e20756e2d7374616b696e6720746f6b656e7300000000000081525060200191505060405180910390fd5b61072f83600960003373ffffffffffffffffffffffffffffffffffffffff1673ffffffffffffffffffffffffffffffffffffffff168152602001908152602001600020600001546119ee90919063ffffffff16565b600960003373ffffffffffffffffffffffffffffffffffffffff1673ffffffffffffffffffffffffffffffffffffffff1681526020019081526020016000206000018190555080600960003373ffffffffffffffffffffffffffffffffffffffff1673ffffffffffffffffffffffffffffffffffffffff16815260200190815260200160002060010181905550600554600960003373ffffffffffffffffffffffffffffffffffffffff1673ffffffffffffffffffffffffffffffffffffffff16815260200190815260200160002060020181905550600854600960003373ffffffffffffffffffffffffffffffffffffffff1673ffffffffffffffffffffffffffffffffffffffff16815260200190815260200160002060030181905550610863836002546119ee90919063ffffffff16565b6002819055506000600254111561087e5761087d82611a38565b5b7faeb913af138cc126643912346d844a49a83761eb58fcfc9e571fc99e1b3d9fa2336108b384866119ee90919063ffffffff16565b84604051808473ffffffffffffffffffffffffffffffffffffffff1673ffffffffffffffffffffffffffffffffffffffff168152602001838152602001828152602001935050505060405180910390a1505050565b600960003373ffffffffffffffffffffffffffffffffffffffff1673ffffffffffffffffffffffffffffffffffffffff168152602001908152602001600020600201546005541115610c7f57600061095f336117f0565b90506109b6600960003373ffffffffffffffffffffffffffffffffffffffff1673ffffffffffffffffffffffffffffffffffffffff1681526020019081526020016000206004015482611b8490919063ffffffff16565b90506000600960003373ffffffffffffffffffffffffffffffffffffffff1673ffffffffffffffffffffffffffffffffffffffff16815260200190815260200160002060040181905550600160009054906101000a900473ffffffffffffffffffffffffffffffffffffffff1673ffffffffffffffffffffffffffffffffffffffff1663a9059cbb33836040518363ffffffff1660e01b8152600401808373ffffffffffffffffffffffffffffffffffffffff1673ffffffffffffffffffffffffffffffffffffffff16815260200182815260200192505050602060405180830381600087803b158015610aa957600080fd5b505af1158015610abd573d6000803e3d6000fd5b505050506040513d6020811015610ad357600080fd5b8101908080519060200190929190505050610b39576040517f08c379a000000000000000000000000000000000000000000000000000000000815260040180806020018281038252602c815260200180611eb9602c913960400191505060405180910390fd5b7f8a0128b5f12decc7d739e546c0521c3388920368915393f80120bc5b408c7c9e3382604051808373ffffffffffffffffffffffffffffffffffffffff1673ffffffffffffffffffffffffffffffffffffffff1681526020018281526020019250505060405180910390a180600960003373ffffffffffffffffffffffffffffffffffffffff1673ffffffffffffffffffffffffffffffffffffffff16815260200190815260200160002060010181905550600854600960003373ffffffffffffffffffffffffffffffffffffffff1673ffffffffffffffffffffffffffffffffffffffff16815260200190815260200160002060030181905550600554600960003373ffffffffffffffffffffffffffffffffffffffff1673ffffffffffffffffffffffffffffffffffffffff16815260200190815260200160002060020181905550505b565b600080610d59600754610d4b600960008773ffffffffffffffffffffffffffffffffffffffff1673ffffffffffffffffffffffffffffffffffffffff16815260200190815260200160002060000154610d3d600a60006001600960008c73ffffffffffffffffffffffffffffffffffffffff1673ffffffffffffffffffffffffffffffffffffffff16815260200190815260200160002060030154038152602001908152602001600020546005546119ee90919063ffffffff16565b61172090919063ffffffff16565b6117a690919063ffffffff16565b9050600754610e1f600960008673ffffffffffffffffffffffffffffffffffffffff1673ffffffffffffffffffffffffffffffffffffffff16815260200190815260200160002060000154610e11600a60006001600960008b73ffffffffffffffffffffffffffffffffffffffff1673ffffffffffffffffffffffffffffffffffffffff16815260200190815260200160002060030154038152602001908152602001600020546005546119ee90919063ffffffff16565b61172090919063ffffffff16565b81610e2657fe5b0681019050600960008473ffffffffffffffffffffffffffffffffffffffff1673ffffffffffffffffffffffffffffffffffffffff168152602001908152602001600020600401548101915050919050565b6000600160009054906101000a900473ffffffffffffffffffffffffffffffffffffffff1673ffffffffffffffffffffffffffffffffffffffff166370a08231836040518263ffffffff1660e01b8152600401808273ffffffffffffffffffffffffffffffffffffffff1673ffffffffffffffffffffffffffffffffffffffff16815260200191505060206040518083038186803b158015610f1957600080fd5b505afa158015610f2d573d6000803e3d6000fd5b505050506040513d6020811015610f4357600080fd5b81019080805190602001909291905050509050919050565b6000600960008373ffffffffffffffffffffffffffffffffffffffff1673ffffffffffffffffffffffffffffffffffffffff168152602001908152602001600020600001549050919050565b6000809054906101000a900473ffffffffffffffffffffffffffffffffffffffff1681565b600160009054906101000a900473ffffffffffffffffffffffffffffffffffffffff1681565b60055481565b600160009054906101000a900473ffffffffffffffffffffffffffffffffffffffff1673ffffffffffffffffffffffffffffffffffffffff166323b872dd3330846040518463ffffffff1660e01b8152600401808473ffffffffffffffffffffffffffffffffffffffff1673ffffffffffffffffffffffffffffffffffffffff1681526020018373ffffffffffffffffffffffffffffffffffffffff1673ffffffffffffffffffffffffffffffffffffffff1681526020018281526020019350505050602060405180830381600087803b1580156110d557600080fd5b505af11580156110e9573d6000803e3d6000fd5b505050506040513d60208110156110ff57600080fd5b8101908080519060200190929190505050611165576040517f08c379a0000000000000000000000000000000000000000000000000000000008152600401808060200182810382526030815260200180611f346030913960400191505060405180910390fd5b61116e81611a38565b50565b60025481565b600160009054906101000a900473ffffffffffffffffffffffffffffffffffffffff1673ffffffffffffffffffffffffffffffffffffffff166323b872dd3330846040518463ffffffff1660e01b8152600401808473ffffffffffffffffffffffffffffffffffffffff1673ffffffffffffffffffffffffffffffffffffffff1681526020018373ffffffffffffffffffffffffffffffffffffffff1673ffffffffffffffffffffffffffffffffffffffff1681526020018281526020019350505050602060405180830381600087803b15801561125457600080fd5b505af1158015611268573d6000803e3d6000fd5b505050506040513d602081101561127e57600080fd5b81019080805190602001909291905050506112e4576040517f08c379a000000000000000000000000000000000000000000000000000000000815260040180806020018281038252602e815260200180611f06602e913960400191505060405180910390fd5b60008090506000600254111561132757611324600a611316600354611308866116cc565b61172090919063ffffffff16565b6117a690919063ffffffff16565b90505b6000600254111561133c5761133b81611a38565b5b6000611347336117f0565b905080600960003373ffffffffffffffffffffffffffffffffffffffff1673ffffffffffffffffffffffffffffffffffffffff16815260200190815260200160002060040160008282540192505081905550611400600960003373ffffffffffffffffffffffffffffffffffffffff1673ffffffffffffffffffffffffffffffffffffffff168152602001908152602001600020600001546113f284866119ee90919063ffffffff16565b611b8490919063ffffffff16565b600960003373ffffffffffffffffffffffffffffffffffffffff1673ffffffffffffffffffffffffffffffffffffffff1681526020019081526020016000206000018190555080600960003373ffffffffffffffffffffffffffffffffffffffff1673ffffffffffffffffffffffffffffffffffffffff16815260200190815260200160002060010181905550600554600960003373ffffffffffffffffffffffffffffffffffffffff1673ffffffffffffffffffffffffffffffffffffffff16815260200190815260200160002060020181905550600854600960003373ffffffffffffffffffffffffffffffffffffffff1673ffffffffffffffffffffffffffffffffffffffff1681526020019081526020016000206003018190555061154661153583856119ee90919063ffffffff16565b600254611b8490919063ffffffff16565b6002819055507f99b6f4b247a06a3dbcda8d2244b818e254005608c2455221a00383939a119e7c3361158184866119ee90919063ffffffff16565b84604051808473ffffffffffffffffffffffffffffffffffffffff1673ffffffffffffffffffffffffffffffffffffffff168152602001838152602001828152602001935050505060405180910390a1505050565b6000809054906101000a900473ffffffffffffffffffffffffffffffffffffffff1673ffffffffffffffffffffffffffffffffffffffff163373ffffffffffffffffffffffffffffffffffffffff161461162f57600080fd5b806000806101000a81548173ffffffffffffffffffffffffffffffffffffffff021916908373ffffffffffffffffffffffffffffffffffffffff1602179055508073ffffffffffffffffffffffffffffffffffffffff163373ffffffffffffffffffffffffffffffffffffffff167f8be0079c531659141344cd1fd0a4f28419497f9722a3daafe3b4186f6b6457e060405160405180910390a350565b6000806116e3606484611c0c90919063ffffffff16565b905060006117146002600a0a60640261170660648561172090919063ffffffff16565b6117a690919063ffffffff16565b90508092505050919050565b60008083141561173357600090506117a0565b600082840290508284828161174457fe5b041461179b576040517f08c379a0000000000000000000000000000000000000000000000000000000008152600401808060200182810382526021815260200180611ee56021913960400191505060405180910390fd5b809150505b92915050565b60006117e883836040518060400160405280601a81526020017f536166654d6174683a206469766973696f6e206279207a65726f000000000000815250611c27565b905092915050565b6000806118c86007546118ba600960008773ffffffffffffffffffffffffffffffffffffffff1673ffffffffffffffffffffffffffffffffffffffff168152602001908152602001600020600001546118ac600a60006001600960008c73ffffffffffffffffffffffffffffffffffffffff1673ffffffffffffffffffffffffffffffffffffffff16815260200190815260200160002060030154038152602001908152602001600020546005546119ee90919063ffffffff16565b61172090919063ffffffff16565b6117a690919063ffffffff16565b905060075461198e600960008673ffffffffffffffffffffffffffffffffffffffff1673ffffffffffffffffffffffffffffffffffffffff16815260200190815260200160002060000154611980600a60006001600960008b73ffffffffffffffffffffffffffffffffffffffff1673ffffffffffffffffffffffffffffffffffffffff16815260200190815260200160002060030154038152602001908152602001600020546005546119ee90919063ffffffff16565b61172090919063ffffffff16565b8161199557fe5b06600960008573ffffffffffffffffffffffffffffffffffffffff1673ffffffffffffffffffffffffffffffffffffffff1681526020019081526020016000206004016000828254019250508190555080915050919050565b6000611a3083836040518060400160405280601e81526020017f536166654d6174683a207375627472616374696f6e206f766572666c6f770000815250611ced565b905092915050565b6000611a63600654611a556007548561172090919063ffffffff16565b611b8490919063ffffffff16565b90506000611a7c600254836117a690919063ffffffff16565b9050611a9360025483611dad90919063ffffffff16565b600681905550611aae81600554611b8490919063ffffffff16565b600581905550611adf81600a6000600160085403815260200190815260200160002054611b8490919063ffffffff16565b600a60006008548152602001908152602001600020819055507fddf8c05dcee82ec75482e095e6c06768c848d5a7df7147686033433d141328b66008548433604051808481526020018381526020018273ffffffffffffffffffffffffffffffffffffffff1673ffffffffffffffffffffffffffffffffffffffff168152602001935050505060405180910390a1600860008154809291906001019190505550505050565b600080828401905083811015611c02576040517f08c379a000000000000000000000000000000000000000000000000000000000815260040180806020018281038252601b8152602001807f536166654d6174683a206164646974696f6e206f766572666c6f77000000000081525060200191505060405180910390fd5b8091505092915050565b6000818260018486010381611c1d57fe5b0402905092915050565b60008083118290611cd3576040517f08c379a00000000000000000000000000000000000000000000000000000000081526004018080602001828103825283818151815260200191508051906020019080838360005b83811015611c98578082015181840152602081019050611c7d565b50505050905090810190601f168015611cc55780820380516001836020036101000a031916815260200191505b509250505060405180910390fd5b506000838581611cdf57fe5b049050809150509392505050565b6000838311158290611d9a576040517f08c379a00000000000000000000000000000000000000000000000000000000081526004018080602001828103825283818151815260200191508051906020019080838360005b83811015611d5f578082015181840152602081019050611d44565b50505050905090810190601f168015611d8c5780820380516001836020036101000a031916815260200191505b509250505060405180910390fd5b5060008385039050809150509392505050565b6000611def83836040518060400160405280601881526020017f536166654d6174683a206d6f64756c6f206279207a65726f0000000000000000815250611df7565b905092915050565b6000808314158290611ea4576040517f08c379a00000000000000000000000000000000000000000000000000000000081526004018080602001828103825283818151815260200191508051906020019080838360005b83811015611e69578082015181840152602081019050611e4e565b50505050905090810190601f168015611e965780820380516001836020036101000a031916815260200191505b509250505060405180910390fd5b50828481611eae57fe5b069050939250505056fe4552524f523a206572726f7220696e2073656e64696e67207265776172642066726f6d20636f6e7472616374536166654d6174683a206d756c7469706c69636174696f6e206f766572666c6f77546f6b656e732063616e6e6f74206265207472616e736665727265642066726f6d2075736572206163636f756e74546f6b656e732063616e6e6f74206265207472616e736665727265642066726f6d2066756e646572206163636f756e74a26469706673582212204b24764c77cdadca8a49b283190480875701cfbe1d981a9dc861eb7113e32c2264736f6c63430006000033",
  "source": "// SPDX-License-Identifier: UNLICENSED\npragma solidity >=0.5.0 <0.8.0;\n\nimport \"@openzeppelin/contracts/token/ERC20/IERC20.sol\";\n\n\nlibrary SafeMath {\n    /**\n     * @dev Returns the addition of two unsigned integers, reverting on\n     * overflow.\n     *\n     * Counterpart to Solidity's `+` operator.\n     *\n     * Requirements:\n     *\n     * - Addition cannot overflow.\n     */\n    function add(uint256 a, uint256 b) internal pure returns (uint256) {\n        uint256 c = a + b;\n        require(c >= a, \"SafeMath: addition overflow\");\n\n        return c;\n    }\n\n    /**\n     * @dev Returns the subtraction of two unsigned integers, reverting on\n     * overflow (when the result is negative).\n     *\n     * Counterpart to Solidity's `-` operator.\n     *\n     * Requirements:\n     *\n     * - Subtraction cannot overflow.\n     */\n    function sub(uint256 a, uint256 b) internal pure returns (uint256) {\n        return sub(a, b, \"SafeMath: subtraction overflow\");\n    }\n\n    /**\n     * @dev Returns the subtraction of two unsigned integers, reverting with custom message on\n     * overflow (when the result is negative).\n     *\n     * Counterpart to Solidity's `-` operator.\n     *\n     * Requirements:\n     *\n     * - Subtraction cannot overflow.\n     */\n    function sub(uint256 a, uint256 b, string memory errorMessage) internal pure returns (uint256) {\n        require(b <= a, errorMessage);\n        uint256 c = a - b;\n\n        return c;\n    }\n\n    /**\n     * @dev Returns the multiplication of two unsigned integers, reverting on\n     * overflow.\n     *\n     * Counterpart to Solidity's `*` operator.\n     *\n     * Requirements:\n     *\n     * - Multiplication cannot overflow.\n     */\n    function mul(uint256 a, uint256 b) internal pure returns (uint256) {\n        // Gas optimization: this is cheaper than requiring 'a' not being zero, but the\n        // benefit is lost if 'b' is also tested.\n        // See: https://github.com/OpenZeppelin/openzeppelin-contracts/pull/522\n        if (a == 0) {\n            return 0;\n        }\n\n        uint256 c = a * b;\n        require(c / a == b, \"SafeMath: multiplication overflow\");\n\n        return c;\n    }\n\n    /**\n     * @dev Returns the integer division of two unsigned integers. Reverts on\n     * division by zero. The result is rounded towards zero.\n     *\n     * Counterpart to Solidity's `/` operator. Note: this function uses a\n     * `revert` opcode (which leaves remaining gas untouched) while Solidity\n     * uses an invalid opcode to revert (consuming all remaining gas).\n     *\n     * Requirements:\n     *\n     * - The divisor cannot be zero.\n     */\n    function div(uint256 a, uint256 b) internal pure returns (uint256) {\n        return div(a, b, \"SafeMath: division by zero\");\n    }\n\n    /**\n     * @dev Returns the integer division of two unsigned integers. Reverts with custom message on\n     * division by zero. The result is rounded towards zero.\n     *\n     * Counterpart to Solidity's `/` operator. Note: this function uses a\n     * `revert` opcode (which leaves remaining gas untouched) while Solidity\n     * uses an invalid opcode to revert (consuming all remaining gas).\n     *\n     * Requirements:\n     *\n     * - The divisor cannot be zero.\n     */\n    function div(uint256 a, uint256 b, string memory errorMessage) internal pure returns (uint256) {\n        require(b > 0, errorMessage);\n        uint256 c = a / b;\n        // assert(a == b * c + a % b); // There is no case in which this doesn't hold\n\n        return c;\n    }\n\n    /**\n     * @dev Returns the remainder of dividing two unsigned integers. (unsigned integer modulo),\n     * Reverts when dividing by zero.\n     *\n     * Counterpart to Solidity's `%` operator. This function uses a `revert`\n     * opcode (which leaves remaining gas untouched) while Solidity uses an\n     * invalid opcode to revert (consuming all remaining gas).\n     *\n     * Requirements:\n     *\n     * - The divisor cannot be zero.\n     */\n    function mod(uint256 a, uint256 b) internal pure returns (uint256) {\n        return mod(a, b, \"SafeMath: modulo by zero\");\n    }\n\n    /**\n     * @dev Returns the remainder of dividing two unsigned integers. (unsigned integer modulo),\n     * Reverts with custom message when dividing by zero.\n     *\n     * Counterpart to Solidity's `%` operator. This function uses a `revert`\n     * opcode (which leaves remaining gas untouched) while Solidity uses an\n     * invalid opcode to revert (consuming all remaining gas).\n     *\n     * Requirements:\n     *\n     * - The divisor cannot be zero.\n     */\n    function mod(uint256 a, uint256 b, string memory errorMessage) internal pure returns (uint256) {\n        require(b != 0, errorMessage);\n        return a % b;\n    }\n    \n    function ceil(uint a, uint m) internal pure returns (uint r) {\n        return (a + m - 1) / m * m;\n    }\n}\n\n// ----------------------------------------------------------------------------\n// Owned contract\n// ----------------------------------------------------------------------------\ncontract Owned {\n    address payable public owner;\n\n    event OwnershipTransferred(address indexed _from, address indexed _to);\n\n    constructor() public {\n        owner = msg.sender;\n    }\n\n    modifier onlyOwner {\n        require(msg.sender == owner);\n        _;\n    }\n\n    function transferOwnership(address payable _newOwner) public onlyOwner {\n        owner = _newOwner;\n        emit OwnershipTransferred(msg.sender, _newOwner);\n    }\n}\n\n\n// ----------------------------------------------------------------------------\n// ERC20 Token, with the addition of symbol, name and decimals and assisted\n// token transfers\n// ----------------------------------------------------------------------------\ncontract EdcoinStake is Owned {\n    using SafeMath for uint256;\n    \n    address public EDC;\n    \n    uint256 public totalStakes = 0;\n    uint256 stakingFee = 25; // 2.5%\n    uint256 unstakingFee = 25; // 2.5% \n    uint256 public totalDividends = 0;\n    uint256 private scaledRemainder = 0;\n    uint256 private scaling = uint256(10) ** 12;\n    uint public round = 1;\n    \n    struct USER{\n        uint256 stakedTokens;\n        uint256 lastDividends;\n        uint256 fromTotalDividend;\n        uint round;\n        uint256 remainder;\n    }\n    \n    mapping(address => USER) stakers;\n    mapping (uint => uint256) public payouts;                   // keeps record of each payout\n    \n    event STAKED(address staker, uint256 tokens, uint256 stakingFee);\n    event UNSTAKED(address staker, uint256 tokens, uint256 unstakingFee);\n    event PAYOUT(uint256 round, uint256 tokens, address sender);\n    event CLAIMEDREWARD(address staker, uint256 reward);\n\n    constructor(address _EDC) public {\n        EDC = _EDC;\n    }\n    \n    // ------------------------------------------------------------------------\n    // Token holders can stake their tokens using this function\n    // @param tokens number of tokens to stake\n    // ------------------------------------------------------------------------\n    function STAKE(uint256 tokens) external {\n        require(IERC20(EDC).transferFrom(msg.sender, address(this), tokens), \"Tokens cannot be transferred from user account\");\n        \n        uint256 _stakingFee = 0;\n        if(totalStakes > 0)\n            _stakingFee= (onePercent(tokens).mul(stakingFee)).div(10); \n        \n        if(totalStakes > 0)\n            // distribute the staking fee accumulated before updating the user's stake\n            _addPayout(_stakingFee);\n            \n        // add pending rewards to remainder to be claimed by user later, if there is any existing stake\n        uint256 owing = pendingReward(msg.sender);\n        stakers[msg.sender].remainder += owing;\n        \n        stakers[msg.sender].stakedTokens = (tokens.sub(_stakingFee)).add(stakers[msg.sender].stakedTokens);\n        stakers[msg.sender].lastDividends = owing;\n        stakers[msg.sender].fromTotalDividend= totalDividends;\n        stakers[msg.sender].round =  round;\n        \n        totalStakes = totalStakes.add(tokens.sub(_stakingFee));\n        \n        emit STAKED(msg.sender, tokens.sub(_stakingFee), _stakingFee);\n    }\n    \n    // ------------------------------------------------------------------------\n    // Owners can send the funds to be distributed to stakers using this function\n    // @param tokens number of tokens to distribute\n    // ------------------------------------------------------------------------\n    function ADDFUNDS(uint256 tokens) external {\n        require(IERC20(EDC).transferFrom(msg.sender, address(this), tokens), \"Tokens cannot be transferred from funder account\");\n        _addPayout(tokens);\n    }\n    \n    // ------------------------------------------------------------------------\n    // Private function to register payouts\n    // ------------------------------------------------------------------------\n    function _addPayout(uint256 tokens) private{\n        // divide the funds among the currently staked tokens\n        // scale the deposit and add the previous remainder\n        uint256 available = (tokens.mul(scaling)).add(scaledRemainder); \n        uint256 dividendPerToken = available.div(totalStakes);\n        scaledRemainder = available.mod(totalStakes);\n        \n        totalDividends = totalDividends.add(dividendPerToken);\n        payouts[round] = payouts[round-1].add(dividendPerToken);\n        \n        emit PAYOUT(round, tokens, msg.sender);\n        round++;\n    }\n    \n    // ------------------------------------------------------------------------\n    // Stakers can claim their pending rewards using this function\n    // ------------------------------------------------------------------------\n    function CLAIMREWARD() public {\n        if(totalDividends > stakers[msg.sender].fromTotalDividend){\n            uint256 owing = pendingReward(msg.sender);\n        \n            owing = owing.add(stakers[msg.sender].remainder);\n            stakers[msg.sender].remainder = 0;\n        \n            require(IERC20(EDC).transfer(msg.sender,owing), \"ERROR: error in sending reward from contract\");\n        \n            emit CLAIMEDREWARD(msg.sender, owing);\n        \n            stakers[msg.sender].lastDividends = owing; // unscaled\n            stakers[msg.sender].round = round; // update the round\n            stakers[msg.sender].fromTotalDividend = totalDividends; // scaled\n        }\n    }\n    \n    // ------------------------------------------------------------------------\n    // Get the pending rewards of the staker\n    // @param _staker the address of the staker\n    // ------------------------------------------------------------------------    \n    function pendingReward(address staker) private returns (uint256) {\n        uint256 amount =  ((totalDividends.sub(payouts[stakers[staker].round - 1])).mul(stakers[staker].stakedTokens)).div(scaling);\n        stakers[staker].remainder += ((totalDividends.sub(payouts[stakers[staker].round - 1])).mul(stakers[staker].stakedTokens)) % scaling ;\n        return amount;\n    }\n    \n    function getPendingReward(address staker) public view returns(uint256 _pendingReward) {\n        uint256 amount =  ((totalDividends.sub(payouts[stakers[staker].round - 1])).mul(stakers[staker].stakedTokens)).div(scaling);\n        amount += ((totalDividends.sub(payouts[stakers[staker].round - 1])).mul(stakers[staker].stakedTokens)) % scaling ;\n        return (amount + stakers[staker].remainder);\n    }\n    \n    // ------------------------------------------------------------------------\n    // Stakers can un stake the staked tokens using this function\n    // @param tokens the number of tokens to withdraw\n    // ------------------------------------------------------------------------\n    function WITHDRAW(uint256 tokens) external {\n        \n        require(stakers[msg.sender].stakedTokens >= tokens && tokens > 0, \"Invalid token amount to withdraw\");\n        \n        uint256 _unstakingFee = (onePercent(tokens).mul(unstakingFee)).div(10);\n        \n        // add pending rewards to remainder to be claimed by user later, if there is any existing stake\n        uint256 owing = pendingReward(msg.sender);\n        stakers[msg.sender].remainder += owing;\n                \n        require(IERC20(EDC).transfer(msg.sender, tokens.sub(_unstakingFee)), \"Error in un-staking tokens\");\n        \n        stakers[msg.sender].stakedTokens = stakers[msg.sender].stakedTokens.sub(tokens);\n        stakers[msg.sender].lastDividends = owing;\n        stakers[msg.sender].fromTotalDividend= totalDividends;\n        stakers[msg.sender].round =  round;\n        \n        totalStakes = totalStakes.sub(tokens);\n        \n        if(totalStakes > 0)\n            // distribute the un staking fee accumulated after updating the user's stake\n            _addPayout(_unstakingFee);\n        \n        emit UNSTAKED(msg.sender, tokens.sub(_unstakingFee), _unstakingFee);\n    }\n    \n    // ------------------------------------------------------------------------\n    // Private function to calculate 1% percentage\n    // ------------------------------------------------------------------------\n    function onePercent(uint256 _tokens) private pure returns (uint256){\n        uint256 roundValue = _tokens.ceil(100);\n        uint onePercentofTokens = roundValue.mul(100).div(100 * 10**uint(2));\n        return onePercentofTokens;\n    }\n    \n    // ------------------------------------------------------------------------\n    // Get the number of tokens staked by a staker\n    // @param _staker the address of the staker\n    // ------------------------------------------------------------------------\n    function yourStakedEDC(address staker) external view returns(uint256 stakedEDC){\n        return stakers[staker].stakedTokens;\n    }\n    \n    // ------------------------------------------------------------------------\n    // Get the EDC balance of the token holder\n    // @param user the address of the token holder\n    // ------------------------------------------------------------------------\n    function yourEDCBalance(address user) external view returns(uint256 EDCBalance){\n        return IERC20(EDC).balanceOf(user);\n    }\n}",
  "sourcePath": "/Users/iamonuwa/Projects/Edcoin/1edcoin/contracts/EdcoinStake.sol",
  "compiler": {
    "name": "solc",
    "version": "0.6.0+commit.26b70077.Emscripten.clang"
  },
  "schemaVersion": "3.3.1",
  "updatedAt": "2020-12-06T11:32:07.461Z",
  "networkType": "ethereum",
  "devdoc": {
    "methods": {}
  },
  "userdoc": {
    "methods": {}
  }
}