{
  "contractName": "EdcoinStake",
  "abi": [
    {
      "inputs": [
        {
          "internalType": "uint256",
          "name": "_stakingTaxBP",
          "type": "uint256"
        },
        {
          "internalType": "uint256",
          "name": "_ustakingTaxBP",
          "type": "uint256"
        },
        {
          "internalType": "uint256",
          "name": "_registrationFeeWithReferrer",
          "type": "uint256"
        },
        {
          "internalType": "uint256",
          "name": "_registrationFeeWithoutReferrer",
          "type": "uint256"
        },
        {
          "internalType": "address",
          "name": "owner",
          "type": "address"
        },
        {
          "internalType": "address",
          "name": "_EDC",
          "type": "address"
        }
      ],
      "stateMutability": "nonpayable",
      "type": "constructor"
    },
    {
      "anonymous": false,
      "inputs": [
        {
          "indexed": false,
          "internalType": "address",
          "name": "sender",
          "type": "address"
        },
        {
          "indexed": false,
          "internalType": "uint256",
          "name": "amountSent",
          "type": "uint256"
        }
      ],
      "name": "OnDistribute",
      "type": "event"
    },
    {
      "anonymous": false,
      "inputs": [
        {
          "indexed": false,
          "internalType": "address",
          "name": "sender",
          "type": "address"
        },
        {
          "indexed": false,
          "internalType": "uint256",
          "name": "amount",
          "type": "uint256"
        },
        {
          "indexed": false,
          "internalType": "uint256",
          "name": "tax",
          "type": "uint256"
        }
      ],
      "name": "OnReinvest",
      "type": "event"
    },
    {
      "anonymous": false,
      "inputs": [
        {
          "indexed": false,
          "internalType": "address",
          "name": "sender",
          "type": "address"
        },
        {
          "indexed": false,
          "internalType": "uint256",
          "name": "amount",
          "type": "uint256"
        },
        {
          "indexed": false,
          "internalType": "uint256",
          "name": "tax",
          "type": "uint256"
        }
      ],
      "name": "OnStake",
      "type": "event"
    },
    {
      "anonymous": false,
      "inputs": [
        {
          "indexed": false,
          "internalType": "address",
          "name": "sender",
          "type": "address"
        },
        {
          "indexed": false,
          "internalType": "uint256",
          "name": "amount",
          "type": "uint256"
        },
        {
          "indexed": false,
          "internalType": "uint256",
          "name": "tax",
          "type": "uint256"
        }
      ],
      "name": "OnUnstake",
      "type": "event"
    },
    {
      "anonymous": false,
      "inputs": [
        {
          "indexed": false,
          "internalType": "address",
          "name": "sender",
          "type": "address"
        },
        {
          "indexed": false,
          "internalType": "uint256",
          "name": "amount",
          "type": "uint256"
        }
      ],
      "name": "OnWithdraw",
      "type": "event"
    },
    {
      "anonymous": false,
      "inputs": [
        {
          "indexed": true,
          "internalType": "address",
          "name": "previousOwner",
          "type": "address"
        },
        {
          "indexed": true,
          "internalType": "address",
          "name": "newOwner",
          "type": "address"
        }
      ],
      "name": "OwnershipTransferred",
      "type": "event"
    },
    {
      "inputs": [],
      "name": "EDC",
      "outputs": [
        {
          "internalType": "address",
          "name": "",
          "type": "address"
        }
      ],
      "stateMutability": "view",
      "type": "function"
    },
    {
      "inputs": [
        {
          "internalType": "address",
          "name": "",
          "type": "address"
        }
      ],
      "name": "accountReferrals",
      "outputs": [
        {
          "internalType": "uint256",
          "name": "",
          "type": "uint256"
        }
      ],
      "stateMutability": "view",
      "type": "function"
    },
    {
      "inputs": [],
      "name": "owner",
      "outputs": [
        {
          "internalType": "address",
          "name": "",
          "type": "address"
        }
      ],
      "stateMutability": "view",
      "type": "function"
    },
    {
      "inputs": [],
      "name": "profitPerShare",
      "outputs": [
        {
          "internalType": "uint256",
          "name": "",
          "type": "uint256"
        }
      ],
      "stateMutability": "view",
      "type": "function"
    },
    {
      "inputs": [],
      "name": "registrationFeeWithReferrer",
      "outputs": [
        {
          "internalType": "uint256",
          "name": "",
          "type": "uint256"
        }
      ],
      "stateMutability": "view",
      "type": "function"
    },
    {
      "inputs": [],
      "name": "registrationFeeWithoutReferrer",
      "outputs": [
        {
          "internalType": "uint256",
          "name": "",
          "type": "uint256"
        }
      ],
      "stateMutability": "view",
      "type": "function"
    },
    {
      "inputs": [],
      "name": "renounceOwnership",
      "outputs": [],
      "stateMutability": "nonpayable",
      "type": "function"
    },
    {
      "inputs": [
        {
          "internalType": "uint256",
          "name": "",
          "type": "uint256"
        }
      ],
      "name": "stakeHandlers",
      "outputs": [
        {
          "internalType": "contract IStakeHandler",
          "name": "",
          "type": "address"
        }
      ],
      "stateMutability": "view",
      "type": "function"
    },
    {
      "inputs": [
        {
          "internalType": "address",
          "name": "",
          "type": "address"
        }
      ],
      "name": "stakeValue",
      "outputs": [
        {
          "internalType": "uint256",
          "name": "",
          "type": "uint256"
        }
      ],
      "stateMutability": "view",
      "type": "function"
    },
    {
      "inputs": [
        {
          "internalType": "address",
          "name": "",
          "type": "address"
        }
      ],
      "name": "stakerIsRegistered",
      "outputs": [
        {
          "internalType": "bool",
          "name": "",
          "type": "bool"
        }
      ],
      "stateMutability": "view",
      "type": "function"
    },
    {
      "inputs": [
        {
          "internalType": "address",
          "name": "",
          "type": "address"
        }
      ],
      "name": "stakerPayouts",
      "outputs": [
        {
          "internalType": "int256",
          "name": "",
          "type": "int256"
        }
      ],
      "stateMutability": "view",
      "type": "function"
    },
    {
      "inputs": [],
      "name": "stakingTaxBP",
      "outputs": [
        {
          "internalType": "uint256",
          "name": "",
          "type": "uint256"
        }
      ],
      "stateMutability": "view",
      "type": "function"
    },
    {
      "inputs": [],
      "name": "startTime",
      "outputs": [
        {
          "internalType": "uint256",
          "name": "",
          "type": "uint256"
        }
      ],
      "stateMutability": "view",
      "type": "function"
    },
    {
      "inputs": [],
      "name": "totalDistributions",
      "outputs": [
        {
          "internalType": "uint256",
          "name": "",
          "type": "uint256"
        }
      ],
      "stateMutability": "view",
      "type": "function"
    },
    {
      "inputs": [],
      "name": "totalStaked",
      "outputs": [
        {
          "internalType": "uint256",
          "name": "",
          "type": "uint256"
        }
      ],
      "stateMutability": "view",
      "type": "function"
    },
    {
      "inputs": [],
      "name": "totalStakers",
      "outputs": [
        {
          "internalType": "uint256",
          "name": "",
          "type": "uint256"
        }
      ],
      "stateMutability": "view",
      "type": "function"
    },
    {
      "inputs": [
        {
          "internalType": "address",
          "name": "newOwner",
          "type": "address"
        }
      ],
      "name": "transferOwnership",
      "outputs": [],
      "stateMutability": "nonpayable",
      "type": "function"
    },
    {
      "inputs": [],
      "name": "unstakingTaxBP",
      "outputs": [
        {
          "internalType": "uint256",
          "name": "",
          "type": "uint256"
        }
      ],
      "stateMutability": "view",
      "type": "function"
    },
    {
      "inputs": [
        {
          "internalType": "uint256",
          "name": "amount",
          "type": "uint256"
        }
      ],
      "name": "registerAndStake",
      "outputs": [],
      "stateMutability": "nonpayable",
      "type": "function"
    },
    {
      "inputs": [
        {
          "internalType": "uint256",
          "name": "amount",
          "type": "uint256"
        },
        {
          "internalType": "address",
          "name": "referrer",
          "type": "address"
        }
      ],
      "name": "registerAndStake",
      "outputs": [],
      "stateMutability": "nonpayable",
      "type": "function"
    },
    {
      "inputs": [
        {
          "internalType": "uint256",
          "name": "amount",
          "type": "uint256"
        }
      ],
      "name": "stake",
      "outputs": [],
      "stateMutability": "nonpayable",
      "type": "function"
    },
    {
      "inputs": [
        {
          "internalType": "uint256",
          "name": "amount",
          "type": "uint256"
        }
      ],
      "name": "unstake",
      "outputs": [],
      "stateMutability": "nonpayable",
      "type": "function"
    },
    {
      "inputs": [
        {
          "internalType": "uint256",
          "name": "amount",
          "type": "uint256"
        }
      ],
      "name": "withdraw",
      "outputs": [],
      "stateMutability": "nonpayable",
      "type": "function"
    },
    {
      "inputs": [
        {
          "internalType": "uint256",
          "name": "amount",
          "type": "uint256"
        }
      ],
      "name": "reinvest",
      "outputs": [],
      "stateMutability": "nonpayable",
      "type": "function"
    },
    {
      "inputs": [
        {
          "internalType": "uint256",
          "name": "amount",
          "type": "uint256"
        }
      ],
      "name": "distribute",
      "outputs": [],
      "stateMutability": "nonpayable",
      "type": "function"
    },
    {
      "inputs": [
        {
          "internalType": "uint256",
          "name": "amount",
          "type": "uint256"
        }
      ],
      "name": "handleTaxDistribution",
      "outputs": [],
      "stateMutability": "nonpayable",
      "type": "function"
    },
    {
      "inputs": [
        {
          "internalType": "address",
          "name": "staker",
          "type": "address"
        }
      ],
      "name": "dividendsOf",
      "outputs": [
        {
          "internalType": "uint256",
          "name": "",
          "type": "uint256"
        }
      ],
      "stateMutability": "view",
      "type": "function"
    },
    {
      "inputs": [
        {
          "internalType": "uint256",
          "name": "value",
          "type": "uint256"
        },
        {
          "internalType": "uint256",
          "name": "taxBP",
          "type": "uint256"
        }
      ],
      "name": "findTaxAmount",
      "outputs": [
        {
          "internalType": "uint256",
          "name": "",
          "type": "uint256"
        }
      ],
      "stateMutability": "pure",
      "type": "function"
    },
    {
      "inputs": [],
      "name": "numberStakeHandlersRegistered",
      "outputs": [
        {
          "internalType": "uint256",
          "name": "",
          "type": "uint256"
        }
      ],
      "stateMutability": "view",
      "type": "function"
    },
    {
      "inputs": [
        {
          "internalType": "contract IStakeHandler",
          "name": "sc",
          "type": "address"
        }
      ],
      "name": "registerStakeHandler",
      "outputs": [],
      "stateMutability": "nonpayable",
      "type": "function"
    },
    {
      "inputs": [
        {
          "internalType": "uint256",
          "name": "index",
          "type": "uint256"
        }
      ],
      "name": "unregisterStakeHandler",
      "outputs": [],
      "stateMutability": "nonpayable",
      "type": "function"
    },
    {
      "inputs": [
        {
          "internalType": "uint256",
          "name": "valueBP",
          "type": "uint256"
        }
      ],
      "name": "setStakingBP",
      "outputs": [],
      "stateMutability": "nonpayable",
      "type": "function"
    },
    {
      "inputs": [
        {
          "internalType": "uint256",
          "name": "valueBP",
          "type": "uint256"
        }
      ],
      "name": "setUnstakingBP",
      "outputs": [],
      "stateMutability": "nonpayable",
      "type": "function"
    },
    {
      "inputs": [
        {
          "internalType": "uint256",
          "name": "_startTime",
          "type": "uint256"
        }
      ],
      "name": "setStartTime",
      "outputs": [],
      "stateMutability": "nonpayable",
      "type": "function"
    },
    {
      "inputs": [
        {
          "internalType": "uint256",
          "name": "valueWithReferrer",
          "type": "uint256"
        },
        {
          "internalType": "uint256",
          "name": "valueWithoutReferrer",
          "type": "uint256"
        }
      ],
      "name": "setRegistrationFees",
      "outputs": [],
      "stateMutability": "nonpayable",
      "type": "function"
    }
  ],
  "bytecode": "0x60806040523480156200001157600080fd5b506040516200261438038062002614833981810160405260c08110156200003757600080fd5b508051602082015160408301516060840151608085015160a090950151939492939192909160006200007164010000000062000103810204565b600080546201000060b060020a03191662010000600160a060020a03841690810291909117825560405192935091600080516020620025f4833981519152908290a3506002869055600385905560018054600160a060020a031916600160a060020a038316179055600d849055600e839055620000f78264010000000062000107810204565b50505050505062000256565b3390565b6200011a64010000000062000103810204565b600054620100009004600160a060020a039081169116146200019d57604080517f08c379a000000000000000000000000000000000000000000000000000000000815260206004820181905260248201527f4f776e61626c653a2063616c6c6572206973206e6f7420746865206f776e6572604482015290519081900360640190fd5b600160a060020a038116620001fe576040517f08c379a0000000000000000000000000000000000000000000000000000000008152600401808060200182810382526026815260200180620025ce6026913960400191505060405180910390fd5b60008054604051600160a060020a0380851693620100009093041691600080516020620025f483398151915291a360008054600160a060020a0390921662010000026201000060b060020a0319909216919091179055565b61236880620002666000396000f3fe608060405234801561001057600080fd5b506004361061022d576000357c0100000000000000000000000000000000000000000000000000000000900480638698903811610142578063a830a78b116100ca578063e7d643cf11610099578063e7d643cf146104f5578063ee3e3acf14610518578063f24ee7d31461053e578063f2fde38b1461056a578063fc8690a2146105905761022d565b8063a830a78b1461048d578063c52d47f014610495578063c5acdb7a146104b2578063d7a88e3c146104cf5761022d565b806391c05b0b1161011157806391c05b0b14610409578063945d648614610426578063947f9a811461042e5780639d58b00c14610436578063a694fc3a146104705761022d565b806386989038146103b65780638cb3c661146103be5780638da5cb5b146103db578063903ca8cb146103e35761022d565b80634feba02a116101c5578063715018a611610194578063715018a61461037957806378e9792514610381578063817b1cd21461038957806383b4918b146103915780638650e92a146103ae5761022d565b80634feba02a1461032f5780635632fe2a14610337578063568b19ed1461033f57806361879df31461035c5761022d565b80633a8ec83e116102015780633a8ec83e146102ae5780633e0a322d146102d15780634a1523dd146102ee5780634bd5fd5d146102f65761022d565b806265318b14610232578063163db71b1461026a5780632e17de78146102725780632e1a7d4d14610291575b600080fd5b6102586004803603602081101561024857600080fd5b5035600160a060020a03166105b6565b60408051918252519081900360200190f35b61025861069c565b61028f6004803603602081101561028857600080fd5b50356106a2565b005b61028f600480360360208110156102a757600080fd5b50356109fe565b610258600480360360408110156102c457600080fd5b5080359060200135610b51565b61028f600480360360208110156102e757600080fd5b5035610b6c565b610258610bd2565b6103136004803603602081101561030c57600080fd5b5035610bd8565b60408051600160a060020a039092168252519081900360200190f35b610258610bff565b610258610c05565b61028f6004803603602081101561035557600080fd5b5035610c0b565b61028f6004803603602081101561037257600080fd5b5035610d19565b61028f610dc2565b610258610e81565b610258610e87565b61028f600480360360208110156103a757600080fd5b5035610e8d565b610258610f67565b610258610f6d565b61028f600480360360208110156103d457600080fd5b5035610f73565b61031361101c565b61028f600480360360208110156103f957600080fd5b5035600160a060020a0316611031565b61028f6004803603602081101561041f57600080fd5b50356110f1565b6103136112a6565b6102586112b5565b61045c6004803603602081101561044c57600080fd5b5035600160a060020a03166112bb565b604080519115158252519081900360200190f35b61028f6004803603602081101561048657600080fd5b50356112d0565b6102586115b0565b61028f600480360360208110156104ab57600080fd5b50356115b6565b61028f600480360360208110156104c857600080fd5b50356115c4565b610258600480360360208110156104e557600080fd5b5035600160a060020a031661166d565b61028f6004803603604081101561050b57600080fd5b508035906020013561167f565b6102586004803603602081101561052e57600080fd5b5035600160a060020a03166116eb565b61028f6004803603604081101561055457600080fd5b5080359060200135600160a060020a03166116fd565b61028f6004803603602081101561058057600080fd5b5035600160a060020a0316611a41565b610258600480360360208110156105a657600080fd5b5035600160a060020a0316611b60565b600160a060020a03811660009081526004602052604081205460095482916105ec916105e79163ffffffff611b7216565b611bce565b600160a060020a03841660009081526005602052604090205490915081121561065f576040805160e560020a62461bcd02815260206004820152601660248201527f6469766964656e642063616c63206f766572666c6f7700000000000000000000604482015290519081900360640190fd5b600160a060020a0383166000908152600560205260409020546106939082036801000000000000000063ffffffff611c2a16565b9150505b919050565b60065481565b670de0b6b3a76400008110156106ec5760405160e560020a62461bcd0281526004018080602001828103825260218152602001806122316021913960400191505060405180910390fd5b3360009081526004602052604090205481111561073d5760405160e560020a62461bcd0281526004018080602001828103825260308152602001806121826030913960400191505060405180910390fd5b61074e610749336105b6565b6109fe565b3360009081526004602052604090205481141561077d5760085461077990600163ffffffff611c6c16565b6008555b600754610790908263ffffffff611c6c16565b600755336000908152600460205260409020546107b3908263ffffffff611c6c16565b336000908152600460205260408120919091556003546107d4908390610b51565b905060006107e8838363ffffffff611c6c16565b90506107f382611cae565b3360009081526004602052604090205460095461081a916105e7919063ffffffff611b7216565b336000908152600560205260408120919091555b600b548110156108f157600b818154811061084557fe5b60009182526020808320909101543380845260049283905260408085205481517f63863e6f0000000000000000000000000000000000000000000000000000000081529485019290925260248401899052604484019190915251600160a060020a03909116926363863e6f926064808201939182900301818387803b1580156108cd57600080fd5b505af11580156108e1573d6000803e3d6000fd5b50506001909201915061082e9050565b506001546040805160e060020a6323b872dd028152306004820152336024820152604481018490529051600160a060020a03909216916323b872dd916064808201926020929091908290030181600087803b15801561094f57600080fd5b505af1158015610963573d6000803e3d6000fd5b505050506040513d602081101561097957600080fd5b50516109b95760405160e560020a62461bcd02815260040180806020018281038252602681526020018061220b6026913960400191505060405180910390fd5b604080513381526020810185905280820184905290517fefe5e683dfe58f596b38874c815bc9599676515f5e641a3305c40aba31c822a79181900360600190a1505050565b80610a08336105b6565b1015610a485760405160e560020a62461bcd0281526004018080602001828103825260348152602001806120fb6034913960400191505060405180910390fd5b610a646105e7826801000000000000000063ffffffff611b7216565b33600081815260056020908152604080832080549590950190945560015484517fa9059cbb0000000000000000000000000000000000000000000000000000000081526004810194909452602484018690529351600160a060020a039094169363a9059cbb93604480820194918390030190829087803b158015610ae757600080fd5b505af1158015610afb573d6000803e3d6000fd5b505050506040513d6020811015610b1157600080fd5b5050604080513381526020810183905281517fbace9fd79d5ea02ed8b43fa96af07e4e8f859a2f71ff878c748f5c22c5780284929181900390910190a150565b6000610b63838363ffffffff611d3a16565b90505b92915050565b610b74611d5f565b600054620100009004600160a060020a03908116911614610bcd576040805160e560020a62461bcd0281526020600482018190526024820152600080516020612273833981519152604482015290519081900360640190fd5b600c55565b600b5490565b600b8181548110610be557fe5b600091825260209091200154600160a060020a0316905081565b600e5481565b600d5481565b610c13611d5f565b600054620100009004600160a060020a03908116911614610c6c576040805160e560020a62461bcd0281526020600482018190526024820152600080516020612273833981519152604482015290519081900360640190fd5b600b8054600091906000198101908110610c8257fe5b600091825260209091200154600b8054600160a060020a0390921692509080610ca757fe5b6000828152602090208101600019908101805473ffffffffffffffffffffffffffffffffffffffff19169055019055600b805482919084908110610ce757fe5b9060005260206000200160006101000a815481600160a060020a030219169083600160a060020a031602179055505050565b610d21611d5f565b600054620100009004600160a060020a03908116911614610d7a576040805160e560020a62461bcd0281526020600482018190526024820152600080516020612273833981519152604482015290519081900360640190fd5b6127108110610dbd5760405160e560020a62461bcd0281526004018080602001828103825260228152602001806122b96022913960400191505060405180910390fd5b600355565b610dca611d5f565b600054620100009004600160a060020a03908116911614610e23576040805160e560020a62461bcd0281526020600482018190526024820152600080516020612273833981519152604482015290519081900360640190fd5b6000805460405162010000909104600160a060020a0316907f8be0079c531659141344cd1fd0a4f28419497f9722a3daafe3b4186f6b6457e0908390a36000805475ffffffffffffffffffffffffffffffffffffffff000019169055565b600c5481565b60075481565b80610e97336105b6565b1015610ed75760405160e560020a62461bcd0281526004018080602001828103825260348152602001806121d76034913960400191505060405180910390fd5b6000610ef2826801000000000000000063ffffffff611b7216565b9050610efd81611bce565b336000908152600560205260408120805492909201909155610f1e83611d63565b604080513381526020810186905280820183905290519192507fc7baba15468fd1418314fb422f04b4c098e4537c6272e621667aff807222a480919081900360600190a1505050565b60095481565b60085481565b600154600160a060020a03163314610fbf5760405160e560020a62461bcd0281526004018080602001828103825260268152602001806122936026913960400191505060405180910390fd5b600654610fd2908263ffffffff611ede16565b600655610fde81611cae565b604080513381526020810183905281517f3b5b764958bcf10eae6e214b635b729c52c8a4962688629cf597c3167cca2022929181900390910190a150565b600054620100009004600160a060020a031690565b611039611d5f565b600054620100009004600160a060020a03908116911614611092576040805160e560020a62461bcd0281526020600482018190526024820152600080516020612273833981519152604482015290519081900360640190fd5b600b80546001810182556000919091527f0175b7a638427703f0dbe7bb9bbf987a2551717b34e79f33b5b1008d1fa01db901805473ffffffffffffffffffffffffffffffffffffffff1916600160a060020a0392909216919091179055565b600154604080517f70a0823100000000000000000000000000000000000000000000000000000000815233600482015290518392600160a060020a0316916370a08231916024808301926020929190829003018186803b15801561115457600080fd5b505afa158015611168573d6000803e3d6000fd5b505050506040513d602081101561117e57600080fd5b505110156111c05760405160e560020a62461bcd02815260040180806020018281038252603581526020018061208d6035913960400191505060405180910390fd5b6006546111d3908263ffffffff611ede16565b6006556111df81611cae565b6001546040805160e060020a6323b872dd028152336004820152306024820152604481018490529051600160a060020a03909216916323b872dd916064808201926020929091908290030181600087803b15801561123c57600080fd5b505af1158015611250573d6000803e3d6000fd5b505050506040513d602081101561126657600080fd5b5051610fde5760405160e560020a62461bcd02815260040180806020018281038252602b81526020018061203e602b913960400191505060405180910390fd5b600154600160a060020a031681565b60035481565b60106020526000908152604090205460ff1681565b3360009081526010602052604090205460ff16151560011461133c576040805160e560020a62461bcd02815260206004820152601c60248201527f4d757374206265207265676973746572656420746f207374616b652e00000000604482015290519081900360640190fd5b670de0b6b3a764000081101561139c576040805160e560020a62461bcd02815260206004820152601f60248201527f4d757374207374616b65206174206c65617374206f6e65204544436f696e2e00604482015290519081900360640190fd5b600154604080517f70a0823100000000000000000000000000000000000000000000000000000000815233600482015290518392600160a060020a0316916370a08231916024808301926020929190829003018186803b1580156113ff57600080fd5b505afa158015611413573d6000803e3d6000fd5b505050506040513d602081101561142957600080fd5b5051101561146b5760405160e560020a62461bcd0281526004018080602001828103825260308152602001806122db6030913960400191505060405180910390fd5b336000908152600460205260409020546114975760085461149390600163ffffffff611ede16565b6008555b60006114a282611d63565b6001546040805160e060020a6323b872dd028152336004820152306024820152604481018690529051929350600160a060020a03909116916323b872dd916064808201926020929091908290030181600087803b15801561150257600080fd5b505af1158015611516573d6000803e3d6000fd5b505050506040513d602081101561152c57600080fd5b505161156c5760405160e560020a62461bcd0281526004018080602001828103825260248152602001806120696024913960400191505060405180910390fd5b604080513381526020810184905280820183905290517ffeb41de252fbc1de97d95a27ed44f6044e66e11df6ca319955eef830b598fdb49181900360600190a15050565b60025481565b6115c18160006116fd565b50565b6115cc611d5f565b600054620100009004600160a060020a03908116911614611625576040805160e560020a62461bcd0281526020600482018190526024820152600080516020612273833981519152604482015290519081900360640190fd5b61271081106116685760405160e560020a62461bcd0281526004018080602001828103825260228152602001806122b96022913960400191505060405180910390fd5b600255565b60046020526000908152604090205481565b611687611d5f565b600054620100009004600160a060020a039081169116146116e0576040805160e560020a62461bcd0281526020600482018190526024820152600080516020612273833981519152604482015290519081900360640190fd5b600d91909155600e55565b600f6020526000908152604090205481565b3360009081526010602052604090205460ff1615611765576040805160e560020a62461bcd02815260206004820152601d60248201527f5374616b6572206d757374206e6f742062652072656769737465726564000000604482015290519081900360640190fd5b600154604080517f70a0823100000000000000000000000000000000000000000000000000000000815233600482015290518492600160a060020a0316916370a08231916024808301926020929190829003018186803b1580156117c857600080fd5b505afa1580156117dc573d6000803e3d6000fd5b505050506040513d60208110156117f257600080fd5b505110156118345760405160e560020a62461bcd02815260040180806020018281038252602881526020018061230b6028913960400191505060405180910390fd5b6000600160a060020a0382166118ae57600e548310156118885760405160e560020a62461bcd0281526004018080602001828103825260398152602001806120c26039913960400191505060405180910390fd5b611893600e546110f1565b600e546118a790849063ffffffff611c6c16565b9050611a19565b600d548310156118f25760405160e560020a62461bcd0281526004018080602001828103825260398152602001806120c26039913960400191505060405180910390fd5b600154600d546040805160e060020a6323b872dd028152336004820152600160a060020a0386811660248301526044820193909352905191909216916323b872dd9160648083019260209291908290030181600087803b15801561195557600080fd5b505af1158015611969573d6000803e3d6000fd5b505050506040513d602081101561197f57600080fd5b50516119bf5760405160e560020a62461bcd02815260040180806020018281038252602d815260200180612155602d913960400191505060405180910390fd5b600160a060020a0382166000908152600f60205260409020546119e990600163ffffffff611ede16565b600160a060020a0383166000908152600f6020526040902055600d54611a1690849063ffffffff611c6c16565b90505b336000908152601060205260409020805460ff19166001179055611a3c816112d0565b505050565b611a49611d5f565b600054620100009004600160a060020a03908116911614611aa2576040805160e560020a62461bcd0281526020600482018190526024820152600080516020612273833981519152604482015290519081900360640190fd5b600160a060020a038116611aea5760405160e560020a62461bcd02815260040180806020018281038252602681526020018061212f6026913960400191505060405180910390fd5b60008054604051600160a060020a03808516936201000090930416917f8be0079c531659141344cd1fd0a4f28419497f9722a3daafe3b4186f6b6457e091a360008054600160a060020a03909216620100000275ffffffffffffffffffffffffffffffffffffffff000019909216919091179055565b60056020526000908152604090205481565b600082611b8157506000610b66565b82820282848281611b8e57fe5b0414610b635760405160e560020a62461bcd0281526004018080602001828103825260218152602001806122526021913960400191505060405180910390fd5b6000611be3600019600263ffffffff611c2a16565b8210611c235760405160e560020a62461bcd0281526004018080602001828103825260258152602001806121b26025913960400191505060405180910390fd5b5080610697565b6000610b6383836040518060400160405280601a81526020017f536166654d6174683a206469766973696f6e206279207a65726f000000000000815250611f3b565b6000610b6383836040518060400160405280601e81526020017f536166654d6174683a207375627472616374696f6e206f766572666c6f770000815250611fe0565b60075415611d2157600a5415611cda57600a54611cd290829063ffffffff611ede16565b6000600a5590505b600754611d1990611d0a90611cfe846801000000000000000063ffffffff611b7216565b9063ffffffff611c2a16565b6009549063ffffffff611ede16565b6009556115c1565b600a54611d34908263ffffffff611ede16565b600a5550565b600082611d4957506000610b66565b610b63612710611cfe858563ffffffff611b7216565b3390565b6000611d7182600254610b51565b90506000611d85838363ffffffff611c6c16565b600754909150611d9b908263ffffffff611ede16565b60075533600090815260046020526040902054611dbe908263ffffffff611ede16565b336000908152600460205260408120919091555b600b54811015611e9557600b8181548110611de957fe5b60009182526020808320909101543380845260049283905260408085205481517f71d7278e0000000000000000000000000000000000000000000000000000000081529485019290925260248401879052604484019190915251600160a060020a03909116926371d7278e926064808201939182900301818387803b158015611e7157600080fd5b505af1158015611e85573d6000803e3d6000fd5b505060019092019150611dd29050565b50600954600090611eac908363ffffffff611b7216565b9050611eb781611bce565b3360009081526005602052604090208054919091019055611ed783611cae565b5050919050565b600082820183811015610b63576040805160e560020a62461bcd02815260206004820152601b60248201527f536166654d6174683a206164646974696f6e206f766572666c6f770000000000604482015290519081900360640190fd5b60008183611fca5760405160e560020a62461bcd0281526004018080602001828103825283818151815260200191508051906020019080838360005b83811015611f8f578181015183820152602001611f77565b50505050905090810190601f168015611fbc5780820380516001836020036101000a031916815260200191505b509250505060405180910390fd5b506000838581611fd657fe5b0495945050505050565b600081848411156120355760405160e560020a62461bcd028152602060048201818152835160248401528351909283926044909101919085019080838360008315611f8f578181015183820152602001611f77565b50505090039056fe446973747269627574696f6e206661696c65642064756520746f206661696c6564207472616e736665722e5374616b65206661696c65642064756520746f206661696c6564207472616e736665722e43616e6e6f742064697374726962757465206d6f7265204564636f696e207468616e20796f7520686f6c6420756e7374616b65642e4d7573742073656e64206174206c6561737420656e6f756768204564636f696e20746f2070617920726567697374726174696f6e206665652e43616e6e6f74207769746864726177206d6f7265206469766964656e6473207468616e20796f752068617665206561726e65642e4f776e61626c653a206e6577206f776e657220697320746865207a65726f20616464726573735374616b65206661696c65642064756520746f206661696c656420726566657272616c207472616e736665722e43616e6e6f7420756e7374616b65206d6f7265204544436f696e207468616e20796f752068617665207374616b65642e4f766572666c6f772e2043616e6e6f7420636f6e766572742075696e7420746f20696e742e43616e6e6f74207265696e76657374206d6f7265206469766964656e6473207468616e20796f752068617665206561726e65642e556e7374616b65206661696c65642064756520746f206661696c6564207472616e736665722e4d75737420756e7374616b65206174206c65617374206f6e65204544436f696e2e536166654d6174683a206d756c7469706c69636174696f6e206f766572666c6f774f776e61626c653a2063616c6c6572206973206e6f7420746865206f776e657243616e206f6e6c792062652063616c6c6564206279204564636f696e20636f6e74726163742e5461782063616e6e6f74206265206f7665722031303025202831303030302042502943616e6e6f74207374616b65206d6f7265204544436f696e207468616e20796f7520686f6c6420756e7374616b65642e4d757374206861766520656e6f7567682062616c616e636520746f207374616b6520616d6f756e74a264697066735822122015d8019927f6229d15bb18f3b682e59e9521e02e37262be802b05597943c0eba64736f6c634300060000334f776e61626c653a206e6577206f776e657220697320746865207a65726f20616464726573738be0079c531659141344cd1fd0a4f28419497f9722a3daafe3b4186f6b6457e0",
  "source": "// SPDX-License-Identifier: UNLICENSED\npragma solidity >=0.5.0 <0.8.0;\n\nimport \"@openzeppelin/contracts/token/ERC20/IERC20.sol\";\nimport \"@openzeppelin/contracts/math/SafeMath.sol\";\nimport \"@openzeppelin/contracts/access/Ownable.sol\";\nimport \"@openzeppelin/contracts/proxy/Initializable.sol\";\nimport \"./library/BasisPoints.sol\";\nimport \"./interfaces/IStakeHandler.sol\";\n\n\ncontract EdcoinStake is Initializable, Ownable {\n    using BasisPoints for uint;\n    using SafeMath for uint;\n\n    uint256 constant internal DISTRIBUTION_MULTIPLIER = 2 ** 64;\n\n    address public EDC;\n\n    uint public stakingTaxBP;\n    uint public unstakingTaxBP;\n\n    mapping(address => uint) public stakeValue;\n    mapping(address => int) public stakerPayouts;\n\n\n    uint public totalDistributions;\n    uint public totalStaked;\n    uint public totalStakers;\n    uint public profitPerShare;\n    uint private emptyStakeTokens; //These are tokens given to the contract when there are no stakers.\n\n    IStakeHandler[] public stakeHandlers;\n    uint public startTime;\n\n    uint public registrationFeeWithReferrer;\n    uint public registrationFeeWithoutReferrer;\n    mapping(address => uint) public accountReferrals;\n    mapping(address => bool) public stakerIsRegistered;\n\n    event OnDistribute(address sender, uint amountSent);\n    event OnStake(address sender, uint amount, uint tax);\n    event OnUnstake(address sender, uint amount, uint tax);\n    event OnReinvest(address sender, uint amount, uint tax);\n    event OnWithdraw(address sender, uint amount);\n\n    modifier onlyEdcoinToken {\n        require(msg.sender == address(EDC), \"Can only be called by Edcoin contract.\");\n        _;\n    }\n\n    constructor(\n        uint _stakingTaxBP,\n        uint _ustakingTaxBP,\n        uint _registrationFeeWithReferrer,\n        uint _registrationFeeWithoutReferrer,\n        address owner,\n        address _EDC\n    ) public {\n        stakingTaxBP = _stakingTaxBP;\n        unstakingTaxBP = _ustakingTaxBP;\n        EDC = _EDC;\n        registrationFeeWithReferrer = _registrationFeeWithReferrer;\n        registrationFeeWithoutReferrer = _registrationFeeWithoutReferrer;\n        //Due to issue in oz testing suite, the msg.sender might not be owner\n        transferOwnership(owner);\n    }\n\n    function registerAndStake(uint amount) public {\n        registerAndStake(amount, address(0x0));\n    }\n\n    function registerAndStake(uint amount, address referrer) public {\n        require(!stakerIsRegistered[msg.sender], \"Staker must not be registered\");\n        require(IERC20(EDC).balanceOf(msg.sender) >= amount, \"Must have enough balance to stake amount\");\n        uint finalAmount;\n        if(address(0x0) == referrer) {\n            //No referrer\n            require(amount >= registrationFeeWithoutReferrer, \"Must send at least enough Edcoin to pay registration fee.\");\n            distribute(registrationFeeWithoutReferrer);\n            finalAmount = amount.sub(registrationFeeWithoutReferrer);\n        } else {\n            //has referrer\n            require(amount >= registrationFeeWithReferrer, \"Must send at least enough Edcoin to pay registration fee.\");\n            require(IERC20(EDC).transferFrom(msg.sender, referrer, registrationFeeWithReferrer), \"Stake failed due to failed referral transfer.\");\n            accountReferrals[referrer] = accountReferrals[referrer].add(1);\n            finalAmount = amount.sub(registrationFeeWithReferrer);\n        }\n        stakerIsRegistered[msg.sender] = true;\n        stake(finalAmount);\n    }\n\n    function stake(uint amount) public {\n        require(stakerIsRegistered[msg.sender] == true, \"Must be registered to stake.\");\n        require(amount >= 1e18, \"Must stake at least one EDCoin.\");\n        require(IERC20(EDC).balanceOf(msg.sender) >= amount, \"Cannot stake more EDCoin than you hold unstaked.\");\n        if (stakeValue[msg.sender] == 0) totalStakers = totalStakers.add(1);\n        uint tax = _addStake(amount);\n        require(IERC20(EDC).transferFrom(msg.sender, address(this), amount), \"Stake failed due to failed transfer.\");\n        emit OnStake(msg.sender, amount, tax);\n    }\n\n    function unstake(uint amount) external {\n        require(amount >= 1e18, \"Must unstake at least one EDCoin.\");\n        require(stakeValue[msg.sender] >= amount, \"Cannot unstake more EDCoin than you have staked.\");\n        //must withdraw all dividends, to prevent overflows\n        withdraw(dividendsOf(msg.sender));\n        if (stakeValue[msg.sender] == amount) totalStakers = totalStakers.sub(1);\n        totalStaked = totalStaked.sub(amount);\n        stakeValue[msg.sender] = stakeValue[msg.sender].sub(amount);\n\n        uint tax = findTaxAmount(amount, unstakingTaxBP);\n        uint earnings = amount.sub(tax);\n        _increaseProfitPerShare(tax);\n        stakerPayouts[msg.sender] = uintToInt(profitPerShare.mul(stakeValue[msg.sender]));\n\n        for (uint i=0; i < stakeHandlers.length; i++) {\n            stakeHandlers[i].handleUnstake(msg.sender, amount, stakeValue[msg.sender]);\n        }\n\n        require(IERC20(EDC).transferFrom(address(this), msg.sender, earnings), \"Unstake failed due to failed transfer.\");\n        emit OnUnstake(msg.sender, amount, tax);\n    }\n\n    function withdraw(uint amount) public {\n        require(dividendsOf(msg.sender) >= amount, \"Cannot withdraw more dividends than you have earned.\");\n        stakerPayouts[msg.sender] = stakerPayouts[msg.sender] + uintToInt(amount.mul(DISTRIBUTION_MULTIPLIER));\n        IERC20(EDC).transfer(msg.sender, amount);\n        emit OnWithdraw(msg.sender, amount);\n    }\n\n    function reinvest(uint amount) external {\n        require(dividendsOf(msg.sender) >= amount, \"Cannot reinvest more dividends than you have earned.\");\n        uint payout = amount.mul(DISTRIBUTION_MULTIPLIER);\n        stakerPayouts[msg.sender] = stakerPayouts[msg.sender] + uintToInt(payout);\n        uint tax = _addStake(amount);\n        emit OnReinvest(msg.sender, amount, tax);\n    }\n\n    function distribute(uint amount) public {\n        require(IERC20(EDC).balanceOf(msg.sender) >= amount, \"Cannot distribute more Edcoin than you hold unstaked.\");\n        totalDistributions = totalDistributions.add(amount);\n        _increaseProfitPerShare(amount);\n        require(\n            IERC20(EDC).transferFrom(msg.sender, address(this), amount),\n            \"Distribution failed due to failed transfer.\"\n        );\n        emit OnDistribute(msg.sender, amount);\n    }\n\n    function handleTaxDistribution(uint amount) external onlyEdcoinToken {\n        totalDistributions = totalDistributions.add(amount);\n        _increaseProfitPerShare(amount);\n        emit OnDistribute(msg.sender, amount);\n    }\n\n    function dividendsOf(address staker) public view returns (uint) {\n        int divPayout = uintToInt(profitPerShare.mul(stakeValue[staker]));\n        require(divPayout >= stakerPayouts[staker], \"dividend calc overflow\");\n        return uint(divPayout - stakerPayouts[staker])\n            .div(DISTRIBUTION_MULTIPLIER);\n    }\n\n    function findTaxAmount(uint value, uint taxBP) public pure returns (uint) {\n        return value.mulBP(taxBP);\n    }\n\n    function numberStakeHandlersRegistered() external view returns (uint) {\n        return stakeHandlers.length;\n    }\n\n    function registerStakeHandler(IStakeHandler sc) external onlyOwner {\n        stakeHandlers.push(sc);\n    }\n\n    function unregisterStakeHandler(uint index) external onlyOwner {\n        IStakeHandler sc = stakeHandlers[stakeHandlers.length-1];\n        stakeHandlers.pop();\n        stakeHandlers[index] = sc;\n    }\n\n    function setStakingBP(uint valueBP) external onlyOwner {\n        require(valueBP < 10000, \"Tax cannot be over 100% (10000 BP)\");\n        stakingTaxBP = valueBP;\n    }\n\n    function setUnstakingBP(uint valueBP) external onlyOwner {\n        require(valueBP < 10000, \"Tax cannot be over 100% (10000 BP)\");\n        unstakingTaxBP = valueBP;\n    }\n\n    function setStartTime(uint _startTime) external onlyOwner {\n        startTime = _startTime;\n    }\n\n    function setRegistrationFees(uint valueWithReferrer, uint valueWithoutReferrer) external onlyOwner {\n        registrationFeeWithReferrer = valueWithReferrer;\n        registrationFeeWithoutReferrer = valueWithoutReferrer;\n    }\n\n    function uintToInt(uint val) internal pure returns (int) {\n        if (val >= uint(-1).div(2)) {\n            require(false, \"Overflow. Cannot convert uint to int.\");\n        } else {\n            return int(val);\n        }\n    }\n\n    function _addStake(uint amount) internal returns (uint tax) {\n        tax = findTaxAmount(amount, stakingTaxBP);\n        uint stakeAmount = amount.sub(tax);\n        totalStaked = totalStaked.add(stakeAmount);\n        stakeValue[msg.sender] = stakeValue[msg.sender].add(stakeAmount);\n        for (uint i=0; i < stakeHandlers.length; i++) {\n            stakeHandlers[i].handleStake(msg.sender, stakeAmount, stakeValue[msg.sender]);\n        }\n        uint payout = profitPerShare.mul(stakeAmount);\n        stakerPayouts[msg.sender] = stakerPayouts[msg.sender] + uintToInt(payout);\n        _increaseProfitPerShare(tax);\n    }\n\n    function _increaseProfitPerShare(uint amount) internal {\n        if (totalStaked != 0) {\n            if (emptyStakeTokens != 0) {\n                amount = amount.add(emptyStakeTokens);\n                emptyStakeTokens = 0;\n            }\n            profitPerShare = profitPerShare.add(amount.mul(DISTRIBUTION_MULTIPLIER).div(totalStaked));\n        } else {\n            emptyStakeTokens = emptyStakeTokens.add(amount);\n        }\n    }\n\n}",
  "sourcePath": "/Users/iamonuwa/Projects/Edcoin/1edcoin/contracts/EdcoinStake.sol",
  "compiler": {
    "name": "solc",
    "version": "0.6.0+commit.26b70077.Emscripten.clang"
  },
  "schemaVersion": "3.3.1",
  "updatedAt": "2020-12-10T01:20:45.109Z",
  "devdoc": {
    "methods": {
      "owner()": {
        "details": "Returns the address of the current owner."
      },
      "renounceOwnership()": {
        "details": "Leaves the contract without owner. It will not be possible to call `onlyOwner` functions anymore. Can only be called by the current owner.     * NOTE: Renouncing ownership will leave the contract without an owner, thereby removing any functionality that is only available to the owner."
      },
      "transferOwnership(address)": {
        "details": "Transfers ownership of the contract to a new account (`newOwner`). Can only be called by the current owner."
      }
    }
  },
  "userdoc": {
    "methods": {}
  }
}