{
  "contractName": "EdcoinStake",
  "abi": [
    {
      "inputs": [
        {
          "internalType": "address",
          "name": "_token",
          "type": "address"
        },
        {
          "internalType": "uint256",
          "name": "_stakingTaxRate",
          "type": "uint256"
        },
        {
          "internalType": "uint256",
          "name": "_unstakingTaxRate",
          "type": "uint256"
        },
        {
          "internalType": "uint256",
          "name": "_dailyROI",
          "type": "uint256"
        },
        {
          "internalType": "uint256",
          "name": "_registrationTax",
          "type": "uint256"
        },
        {
          "internalType": "uint256",
          "name": "_minimumStakeValue",
          "type": "uint256"
        }
      ],
      "stateMutability": "nonpayable",
      "type": "constructor"
    },
    {
      "anonymous": false,
      "inputs": [
        {
          "indexed": false,
          "internalType": "address",
          "name": "stakeholder",
          "type": "address"
        },
        {
          "indexed": false,
          "internalType": "uint256",
          "name": "amount",
          "type": "uint256"
        },
        {
          "indexed": false,
          "internalType": "uint256",
          "name": "totalTax",
          "type": "uint256"
        },
        {
          "indexed": false,
          "internalType": "address",
          "name": "_referrer",
          "type": "address"
        }
      ],
      "name": "OnRegisterAndStake",
      "type": "event"
    },
    {
      "anonymous": false,
      "inputs": [
        {
          "indexed": false,
          "internalType": "address",
          "name": "sender",
          "type": "address"
        },
        {
          "indexed": false,
          "internalType": "uint256",
          "name": "amount",
          "type": "uint256"
        },
        {
          "indexed": false,
          "internalType": "uint256",
          "name": "tax",
          "type": "uint256"
        }
      ],
      "name": "OnStake",
      "type": "event"
    },
    {
      "anonymous": false,
      "inputs": [
        {
          "indexed": false,
          "internalType": "address",
          "name": "sender",
          "type": "address"
        },
        {
          "indexed": false,
          "internalType": "uint256",
          "name": "amount",
          "type": "uint256"
        },
        {
          "indexed": false,
          "internalType": "uint256",
          "name": "tax",
          "type": "uint256"
        }
      ],
      "name": "OnUnstake",
      "type": "event"
    },
    {
      "anonymous": false,
      "inputs": [
        {
          "indexed": false,
          "internalType": "address",
          "name": "sender",
          "type": "address"
        },
        {
          "indexed": false,
          "internalType": "uint256",
          "name": "amount",
          "type": "uint256"
        }
      ],
      "name": "OnWithdrawal",
      "type": "event"
    },
    {
      "anonymous": false,
      "inputs": [
        {
          "indexed": true,
          "internalType": "address",
          "name": "_from",
          "type": "address"
        },
        {
          "indexed": true,
          "internalType": "address",
          "name": "_to",
          "type": "address"
        }
      ],
      "name": "OwnershipTransferred",
      "type": "event"
    },
    {
      "inputs": [],
      "name": "EDC",
      "outputs": [
        {
          "internalType": "address",
          "name": "",
          "type": "address"
        }
      ],
      "stateMutability": "view",
      "type": "function",
      "constant": true
    },
    {
      "inputs": [],
      "name": "active",
      "outputs": [
        {
          "internalType": "bool",
          "name": "",
          "type": "bool"
        }
      ],
      "stateMutability": "view",
      "type": "function",
      "constant": true
    },
    {
      "inputs": [],
      "name": "dailyROI",
      "outputs": [
        {
          "internalType": "uint256",
          "name": "",
          "type": "uint256"
        }
      ],
      "stateMutability": "view",
      "type": "function",
      "constant": true
    },
    {
      "inputs": [],
      "name": "minimumStakeValue",
      "outputs": [
        {
          "internalType": "uint256",
          "name": "",
          "type": "uint256"
        }
      ],
      "stateMutability": "view",
      "type": "function",
      "constant": true
    },
    {
      "inputs": [],
      "name": "owner",
      "outputs": [
        {
          "internalType": "address",
          "name": "",
          "type": "address"
        }
      ],
      "stateMutability": "view",
      "type": "function",
      "constant": true
    },
    {
      "inputs": [
        {
          "internalType": "address",
          "name": "",
          "type": "address"
        }
      ],
      "name": "referralCount",
      "outputs": [
        {
          "internalType": "uint256",
          "name": "",
          "type": "uint256"
        }
      ],
      "stateMutability": "view",
      "type": "function",
      "constant": true
    },
    {
      "inputs": [
        {
          "internalType": "address",
          "name": "",
          "type": "address"
        }
      ],
      "name": "referralRewards",
      "outputs": [
        {
          "internalType": "uint256",
          "name": "",
          "type": "uint256"
        }
      ],
      "stateMutability": "view",
      "type": "function",
      "constant": true
    },
    {
      "inputs": [
        {
          "internalType": "address",
          "name": "",
          "type": "address"
        }
      ],
      "name": "registered",
      "outputs": [
        {
          "internalType": "bool",
          "name": "",
          "type": "bool"
        }
      ],
      "stateMutability": "view",
      "type": "function",
      "constant": true
    },
    {
      "inputs": [],
      "name": "registrationTax",
      "outputs": [
        {
          "internalType": "uint256",
          "name": "",
          "type": "uint256"
        }
      ],
      "stateMutability": "view",
      "type": "function",
      "constant": true
    },
    {
      "inputs": [
        {
          "internalType": "address",
          "name": "",
          "type": "address"
        }
      ],
      "name": "stakeRewards",
      "outputs": [
        {
          "internalType": "uint256",
          "name": "",
          "type": "uint256"
        }
      ],
      "stateMutability": "view",
      "type": "function",
      "constant": true
    },
    {
      "inputs": [
        {
          "internalType": "address",
          "name": "",
          "type": "address"
        }
      ],
      "name": "stakes",
      "outputs": [
        {
          "internalType": "uint256",
          "name": "",
          "type": "uint256"
        }
      ],
      "stateMutability": "view",
      "type": "function",
      "constant": true
    },
    {
      "inputs": [],
      "name": "stakingTaxRate",
      "outputs": [
        {
          "internalType": "uint256",
          "name": "",
          "type": "uint256"
        }
      ],
      "stateMutability": "view",
      "type": "function",
      "constant": true
    },
    {
      "inputs": [],
      "name": "totalStaked",
      "outputs": [
        {
          "internalType": "uint256",
          "name": "",
          "type": "uint256"
        }
      ],
      "stateMutability": "view",
      "type": "function",
      "constant": true
    },
    {
      "inputs": [
        {
          "internalType": "address",
          "name": "_newOwner",
          "type": "address"
        }
      ],
      "name": "transferOwnership",
      "outputs": [],
      "stateMutability": "nonpayable",
      "type": "function"
    },
    {
      "inputs": [],
      "name": "unstakingTaxRate",
      "outputs": [
        {
          "internalType": "uint256",
          "name": "",
          "type": "uint256"
        }
      ],
      "stateMutability": "view",
      "type": "function",
      "constant": true
    },
    {
      "inputs": [
        {
          "internalType": "uint256",
          "name": "_amount",
          "type": "uint256"
        },
        {
          "internalType": "address",
          "name": "_referrer",
          "type": "address"
        }
      ],
      "name": "registerAndStake",
      "outputs": [],
      "stateMutability": "nonpayable",
      "type": "function"
    },
    {
      "inputs": [
        {
          "internalType": "address",
          "name": "_stakeholder",
          "type": "address"
        }
      ],
      "name": "calculateEarnings",
      "outputs": [
        {
          "internalType": "uint256",
          "name": "",
          "type": "uint256"
        }
      ],
      "stateMutability": "view",
      "type": "function",
      "constant": true
    },
    {
      "inputs": [
        {
          "internalType": "uint256",
          "name": "_amount",
          "type": "uint256"
        }
      ],
      "name": "stake",
      "outputs": [],
      "stateMutability": "nonpayable",
      "type": "function"
    },
    {
      "inputs": [
        {
          "internalType": "uint256",
          "name": "_amount",
          "type": "uint256"
        }
      ],
      "name": "unstake",
      "outputs": [],
      "stateMutability": "nonpayable",
      "type": "function"
    },
    {
      "inputs": [],
      "name": "withdrawEarnings",
      "outputs": [
        {
          "internalType": "bool",
          "name": "success",
          "type": "bool"
        }
      ],
      "stateMutability": "nonpayable",
      "type": "function"
    },
    {
      "inputs": [],
      "name": "rewardPool",
      "outputs": [
        {
          "internalType": "uint256",
          "name": "claimable",
          "type": "uint256"
        }
      ],
      "stateMutability": "view",
      "type": "function",
      "constant": true
    },
    {
      "inputs": [],
      "name": "changeActiveStatus",
      "outputs": [],
      "stateMutability": "nonpayable",
      "type": "function"
    },
    {
      "inputs": [
        {
          "internalType": "uint256",
          "name": "_stakingTaxRate",
          "type": "uint256"
        }
      ],
      "name": "setStakingTaxRate",
      "outputs": [],
      "stateMutability": "nonpayable",
      "type": "function"
    },
    {
      "inputs": [
        {
          "internalType": "uint256",
          "name": "_unstakingTaxRate",
          "type": "uint256"
        }
      ],
      "name": "setUnstakingTaxRate",
      "outputs": [],
      "stateMutability": "nonpayable",
      "type": "function"
    },
    {
      "inputs": [
        {
          "internalType": "uint256",
          "name": "_dailyROI",
          "type": "uint256"
        }
      ],
      "name": "setDailyROI",
      "outputs": [],
      "stateMutability": "nonpayable",
      "type": "function"
    },
    {
      "inputs": [
        {
          "internalType": "uint256",
          "name": "_registrationTax",
          "type": "uint256"
        }
      ],
      "name": "setRegistrationTax",
      "outputs": [],
      "stateMutability": "nonpayable",
      "type": "function"
    },
    {
      "inputs": [
        {
          "internalType": "uint256",
          "name": "_minimumStakeValue",
          "type": "uint256"
        }
      ],
      "name": "setMinimumStakeValue",
      "outputs": [],
      "stateMutability": "nonpayable",
      "type": "function"
    },
    {
      "inputs": [
        {
          "internalType": "uint256",
          "name": "_amount",
          "type": "uint256"
        }
      ],
      "name": "filter",
      "outputs": [
        {
          "internalType": "bool",
          "name": "success",
          "type": "bool"
        }
      ],
      "stateMutability": "nonpayable",
      "type": "function"
    }
  ],
  "bytecode": "0x60806040526008805460ff1916600117905534801561001d57600080fd5b50604051611a14380380611a14833981810160405260c081101561004057600080fd5b508051602082015160408301516060840151608085015160a09095015160008054600160a060020a0319908116331790915560018054600160a060020a039097169690911695909517909455600392909255600655600555600491909155600755611964806100b06000396000f3fe608060405234801561001057600080fd5b50600436106101e1576000357c010000000000000000000000000000000000000000000000000000000090048063817b1cd211610116578063c428e114116100b4578063f24ee7d31161008e578063f24ee7d314610446578063f2fde38b14610472578063f5c762cb14610498578063fbfaa24d146104a0576101e1565b8063c428e114146103d4578063db74559b146103fa578063e0de0c6814610420576101e1565b8063a14d71b8116100f0578063a14d71b81461036c578063a694fc3a14610389578063b2dd5c07146103a6578063b73c6ce9146103cc576101e1565b8063817b1cd2146103385780638da5cb5b14610340578063945d648614610364576101e1565b806318e1fbfc116101835780634be4d7901161015d5780634be4d790146102e557806353aaa63b1461030257806366666aa91461032857806370f0f38714610330576101e1565b806318e1fbfc146102a35780631fb27cad146102ab5780632e17de78146102c8576101e1565b80630c5386ee116101bf5780630c5386ee1461023b5780630c9d52241461025857806313c333841461027557806316934fc41461027d576101e1565b806302fb0c5e146101e657806306693604146102025780630aca582e14610221575b600080fd5b6101ee6104a8565b604080519115158252519081900360200190f35b61021f6004803603602081101561021857600080fd5b50356104b1565b005b6102296104cd565b60408051918252519081900360200190f35b61021f6004803603602081101561025157600080fd5b50356104d3565b6101ee6004803603602081101561026e57600080fd5b50356104ef565b61021f6106ae565b6102296004803603602081101561029357600080fd5b5035600160a060020a03166106ef565b610229610701565b61021f600480360360208110156102c157600080fd5b5035610707565b61021f600480360360208110156102de57600080fd5b5035610723565b61021f600480360360208110156102fb57600080fd5b50356109ec565b6102296004803603602081101561031857600080fd5b5035600160a060020a0316610a08565b610229610a1a565b610229610a8a565b610229610a90565b610348610a96565b60408051600160a060020a039092168252519081900360200190f35b610348610aa5565b61021f6004803603602081101561038257600080fd5b5035610ab4565b61021f6004803603602081101561039f57600080fd5b5035610ad0565b6101ee600480360360208110156103bc57600080fd5b5035600160a060020a0316610e67565b6101ee610e7c565b610229600480360360208110156103ea57600080fd5b5035600160a060020a03166110e8565b6102296004803603602081101561041057600080fd5b5035600160a060020a03166110fa565b6102296004803603602081101561043657600080fd5b5035600160a060020a031661110c565b61021f6004803603604081101561045c57600080fd5b5080359060200135600160a060020a031661117f565b61021f6004803603602081101561048857600080fd5b5035600160a060020a0316611659565b6102296116cb565b6102296116d1565b60085460ff1681565b600054600160a060020a031633146104c857600080fd5b600455565b60045481565b600054600160a060020a031633146104ea57600080fd5b600655565b60008054600160a060020a0316331461050757600080fd5b6002546001546040805160e060020a6370a0823102815230600482015290518593610592939092600160a060020a03909116916370a0823191602480820192602092909190829003018186803b15801561056057600080fd5b505afa158015610574573d6000803e3d6000fd5b505050506040513d602081101561058a57600080fd5b5051906116d7565b10156105d25760405160e560020a62461bcd0281526004018080602001828103825260238152602001806118666023913960400191505060405180910390fd5b600154604080517fa9059cbb000000000000000000000000000000000000000000000000000000008152336004820152602481018590529051600160a060020a039092169163a9059cbb916044808201926020929091908290030181600087803b15801561063f57600080fd5b505af1158015610653573d6000803e3d6000fd5b505050506040513d602081101561066957600080fd5b5050604080513381526020810184905281517fefbfe3c015941f3419cd0c7f713fd74c6874d0da2d765adc7f700370ccd5ba5c929181900390910190a1506001919050565b600054600160a060020a031633146106c557600080fd5b60085460ff16156106df576008805460ff191690556106ed565b6008805460ff191660011790555b565b60096020526000908152604090205481565b60075481565b600054600160a060020a0316331461071e57600080fd5b600355565b336000908152600e602052604090205460ff16151560011461078f576040805160e560020a62461bcd02815260206004820152601e60248201527f5374616b65686f6c646572206d75737420626520726567697374657265640000604482015290519081900360640190fd5b3360009081526009602052604090205481118015906107ae5750600081115b610802576040805160e560020a62461bcd02815260206004820152601f60248201527f496e73756666696369656e742062616c616e636520746f20756e7374616b6500604482015290519081900360640190fd5b60006108256103e861081f846006546116ec90919063ffffffff16565b90611713565b9050600061083383836116d7565b90506108576108413361110c565b336000908152600c602052604090205490611732565b336000908152600c602090815260408083209390935560099052205461087d90846116d7565b33600090815260096020908152604080832093909355600d9052908120546108b59062015180906108af9042906116d7565b90611742565b90506108c142826116d7565b336000908152600d60205260409020556002546108de90856116d7565b600255600154604080517fa9059cbb000000000000000000000000000000000000000000000000000000008152336004820152602481018590529051600160a060020a039092169163a9059cbb916044808201926020929091908290030181600087803b15801561094e57600080fd5b505af1158015610962573d6000803e3d6000fd5b505050506040513d602081101561097857600080fd5b5050336000908152600960205260409020546109a657336000908152600e60205260409020805460ff191690555b604080513381526020810186905280820185905290517fefe5e683dfe58f596b38874c815bc9599676515f5e641a3305c40aba31c822a79181900360600190a150505050565b600054600160a060020a03163314610a0357600080fd5b600755565b600a6020526000908152604090205481565b60008054600160a060020a03163314610a3257600080fd5b6002546001546040805160e060020a6370a082310281523060048201529051610a859392600160a060020a0316916370a08231916024808301926020929190829003018186803b15801561056057600080fd5b905090565b60035481565b60025481565b600054600160a060020a031681565b600154600160a060020a031681565b600054600160a060020a03163314610acb57600080fd5b600555565b336000908152600e602052604090205460ff161515600114610b3c576040805160e560020a62461bcd02815260206004820152601e60248201527f5374616b65686f6c646572206d75737420626520726567697374657265640000604482015290519081900360640190fd5b60085460ff161515600114610b855760405160e560020a62461bcd0281526004018080602001828103825260238152602001806118226023913960400191505060405180910390fd5b600754811015610bc95760405160e560020a62461bcd02815260040180806020018281038252602481526020018061190b6024913960400191505060405180910390fd5b6001546040805160e060020a6370a0823102815233600482015290518392600160a060020a0316916370a08231916024808301926020929190829003018186803b158015610c1657600080fd5b505afa158015610c2a573d6000803e3d6000fd5b505050506040513d6020811015610c4057600080fd5b50511015610c825760405160e560020a62461bcd0281526004018080602001828103825260218152602001806118456021913960400191505060405180910390fd5b600154604080517f23b872dd000000000000000000000000000000000000000000000000000000008152336004820152306024820152604481018490529051600160a060020a03909216916323b872dd916064808201926020929091908290030181600087803b158015610cf557600080fd5b505af1158015610d09573d6000803e3d6000fd5b505050506040513d6020811015610d1f57600080fd5b5051610d5f5760405160e560020a62461bcd02815260040180806020018281038252602b8152602001806118e0602b913960400191505060405180910390fd5b6000610d7c6103e861081f846003546116ec90919063ffffffff16565b90506000610d8a83836116d7565b600254909150610d9a9082611732565b600255610da96108413361110c565b336000908152600c6020908152604080832093909355600d905290812054610ddb9062015180906108af9042906116d7565b9050610de742826116d7565b336000908152600d6020908152604080832093909355600990522054610e0d9083611732565b3360008181526009602090815260409182902093909355805191825291810184905280820185905290517ffeb41de252fbc1de97d95a27ed44f6044e66e11df6ca319955eef830b598fdb49181900360600190a150505050565b600e6020526000908152604090205460ff1681565b600080610eb6610e8b3361110c565b336000908152600c6020908152604080832054600a90925290912054610eb091611732565b90611732565b905060008111610f10576040805160e560020a62461bcd02815260206004820152601560248201527f4e6f2072657761726420746f2077697468647261770000000000000000000000604482015290519081900360640190fd5b6002546001546040805160e060020a6370a0823102815230600482015290518493610f69939092600160a060020a03909116916370a0823191602480820192602092909190829003018186803b15801561056057600080fd5b1015610fa95760405160e560020a62461bcd0281526004018080602001828103825260238152602001806118666023913960400191505060405180910390fd5b336000908152600c60209081526040808320839055600a8252808320839055600b8252808320839055600d909152812054610fee9062015180906108af9042906116d7565b9050610ffa42826116d7565b336000818152600d602090815260408083209490945560015484517fa9059cbb0000000000000000000000000000000000000000000000000000000081526004810194909452602484018790529351600160a060020a039094169363a9059cbb93604480820194918390030190829087803b15801561107857600080fd5b505af115801561108c573d6000803e3d6000fd5b505050506040513d60208110156110a257600080fd5b5050604080513381526020810184905281517fefbfe3c015941f3419cd0c7f713fd74c6874d0da2d765adc7f700370ccd5ba5c929181900390910190a160019250505090565b600c6020526000908152604090205481565b600b6020526000908152604090205481565b600160a060020a0381166000908152600d6020526040812054819061113b90620151809061081f9042906116d7565b600554600160a060020a038516600090815260096020526040902054919250611178916127109161081f91859161117291906116ec565b906116ec565b9392505050565b336000908152600e602052604090205460ff16156111d15760405160e560020a62461bcd0281526004018080602001828103825260218152602001806118bf6021913960400191505060405180910390fd5b60085460ff16151560011461121a5760405160e560020a62461bcd0281526004018080602001828103825260238152602001806118226023913960400191505060405180910390fd5b33600160a060020a038216141561127b576040805160e560020a62461bcd02815260206004820152601160248201527f43616e6e6f742072656665722073656c66000000000000000000000000000000604482015290519081900360640190fd5b600160a060020a0381166000908152600e602052604090205460ff16806112a95750600160a060020a038116155b6112fd576040805160e560020a62461bcd02815260206004820152601b60248201527f5265666572726572206d75737420626520726567697374657265640000000000604482015290519081900360640190fd5b6001546040805160e060020a6370a0823102815233600482015290518492600160a060020a0316916370a08231916024808301926020929190829003018186803b15801561134a57600080fd5b505afa15801561135e573d6000803e3d6000fd5b505050506040513d602081101561137457600080fd5b505110156113b65760405160e560020a62461bcd0281526004018080602001828103825260218152602001806118456021913960400191505060405180910390fd5b6007546004546113c591611732565b8210156114065760405160e560020a62461bcd0281526004018080602001828103825260368152602001806118896036913960400191505060405180910390fd5b600154604080517f23b872dd000000000000000000000000000000000000000000000000000000008152336004820152306024820152604481018590529051600160a060020a03909216916323b872dd916064808201926020929091908290030181600087803b15801561147957600080fd5b505af115801561148d573d6000803e3d6000fd5b505050506040513d60208110156114a357600080fd5b50516114e35760405160e560020a62461bcd02815260040180806020018281038252602b8152602001806118e0602b913960400191505060405180910390fd5b60006114fa600454846116d790919063ffffffff16565b905060006115196103e861081f846003546116ec90919063ffffffff16565b9050600160a060020a0383161561157857600160a060020a0383166000908152600b6020908152604080832080546001019055600a90915290205461155e9082611732565b600160a060020a0384166000908152600a60205260409020555b336000908152600e60209081526040808320805460ff19166001179055600d90915290204290556002546115b89082906115b29085611732565b906116d7565b600255336000908152600960205260409020546115db9082906115b29085611732565b336000818152600960205260409020919091556004547f2aef494423269f61b2dd75f1f1e289ef00d20b5a68bd5a6740c518cddd9a865b919086906116209085611732565b60408051600160a060020a039485168152602081019390935282810191909152918616606082015290519081900360800190a150505050565b600054600160a060020a0316331461167057600080fd5b6000805473ffffffffffffffffffffffffffffffffffffffff1916600160a060020a0383811691821780845560405192939116917f8be0079c531659141344cd1fd0a4f28419497f9722a3daafe3b4186f6b6457e09190a350565b60055481565b60065481565b6000828211156116e657600080fd5b50900390565b81810282158061170457508183828161170157fe5b04145b61170d57600080fd5b92915050565b600080821161172157600080fd5b81838161172a57fe5b049392505050565b8181018281101561170d57600080fd5b600061117883836040518060400160405280601881526020017f536166654d6174683a206d6f64756c6f206279207a65726f00000000000000008152506000818361180e5760405160e560020a62461bcd0281526004018080602001828103825283818151815260200191508051906020019080838360005b838110156117d35781810151838201526020016117bb565b50505050905090810190601f1680156118005780820380516001836020036101000a031916815260200191505b509250505060405180910390fd5b5082848161181857fe5b0694935050505056fe536d61727420636f6e747261637420697320637572656e746c7920696e6163746976654d757374206861766520656e6f7567682062616c616e636520746f207374616b65496e73756666696369656e74204544434f494e2062616c616e636520696e20706f6f6c4d7573742073656e64206174206c6561737420656e6f7567682045444320746f2070617920726567697374726174696f6e206665652e5374616b65686f6c64657220697320616c726561647920726567697374657265645374616b65206661696c65642064756520746f206661696c656420616d6f756e74207472616e736665722e416d6f756e742069732062656c6f77206d696e696d756d207374616b652076616c75652ea2646970667358221220a65c8080f21abea4a5a00be8784e4130ae3e385e6a1ed6f84b262533cab55ef064736f6c634300060c0033",
  "immutableReferences": {},
  "source": "//\"SPDX-License-Identifier: UNLICENSED\"\n\npragma solidity >=0.5.0 <0.8.0;\n\ninterface IERC20 {\n    function transfer(address to, uint tokens) external returns (bool success);\n    function transferFrom(address from, address to, uint tokens) external returns (bool success);\n    function balanceOf(address tokenOwner) external view returns (uint balance);\n    function approve(address spender, uint tokens) external returns (bool success);\n    function allowance(address tokenOwner, address spender) external view returns (uint remaining);\n    function totalSupply() external view returns (uint);\n    event Transfer(address indexed from, address indexed to, uint tokens);\n    event Approval(address indexed tokenOwner, address indexed spender, uint tokens);\n}\n\nlibrary SafeMath {\n    function add(uint a, uint b) internal pure returns (uint c) {\n        c = a + b;\n        require(c >= a);\n    }\n\n    function sub(uint a, uint b) internal pure returns (uint c) {\n        require(b <= a);\n        c = a - b;\n    }\n\n    function mul(uint a, uint b) internal pure returns (uint c) {\n        c = a * b;\n        require(a == 0 || c / a == b);\n    }\n\n    function div(uint a, uint b) internal pure returns (uint c) {\n        require(b > 0);\n        c = a / b;\n    }\n    \n    function mod(uint256 a, uint256 b) internal pure returns (uint256) {\n        return mod(a, b, \"SafeMath: modulo by zero\");\n    }\n    \n    function mod(uint256 a, uint256 b, string memory errorMessage) internal pure returns (uint256) {\n        require(b != 0, errorMessage);\n        return a % b;\n    }\n}\n\ncontract Owned {\n    address public owner;\n\n    event OwnershipTransferred(address indexed _from, address indexed _to);\n\n    constructor() public {\n        owner = msg.sender;\n    }\n\n    modifier onlyOwner {\n        require(msg.sender == owner);\n        _;\n    }\n\n    function transferOwnership(address _newOwner) public onlyOwner {\n        owner = _newOwner;\n        emit OwnershipTransferred(owner, _newOwner);\n    }\n}\n\ncontract EdcoinStake is Owned {\n    \n    //initializing safe computations\n    using SafeMath for uint;\n\n    //EdcoinStake contract address\n    address public EDC;\n    //total amount of staked Edcoin\n    uint public totalStaked;\n    //tax rate for staking in percentage\n    uint public stakingTaxRate;                     //10 = 1%\n    //tax amount for registration\n    uint public registrationTax;\n    //daily return of investment in percentage\n    uint public dailyROI;                         //100 = 1%\n    //tax rate for unstaking in percentage \n    uint public unstakingTaxRate;                   //10 = 1%\n    //minimum stakeable Edcoin\n    uint public minimumStakeValue;\n    //pause mechanism\n    bool public active = true;\n    \n    //mapping of stakeholder's addresses to data\n    mapping(address => uint) public stakes;\n    mapping(address => uint) public referralRewards;\n    mapping(address => uint) public referralCount;\n    mapping(address => uint) public stakeRewards;\n    mapping(address => uint) private lastClock;\n    mapping(address => bool) public registered;\n    \n    //Events\n    event OnWithdrawal(address sender, uint amount);\n    event OnStake(address sender, uint amount, uint tax);\n    event OnUnstake(address sender, uint amount, uint tax);\n    event OnRegisterAndStake(address stakeholder, uint amount, uint totalTax , address _referrer);\n    \n    /**\n     * @dev Sets the initial values\n     */\n    constructor(\n        address _token,\n        uint _stakingTaxRate, \n        uint _unstakingTaxRate,\n        uint _dailyROI,\n        uint _registrationTax,\n        uint _minimumStakeValue) public {\n            \n        //set initial state variables\n        EDC = _token;\n        stakingTaxRate = _stakingTaxRate;\n        unstakingTaxRate = _unstakingTaxRate;\n        dailyROI = _dailyROI;\n        registrationTax = _registrationTax;\n        minimumStakeValue = _minimumStakeValue;\n    }\n    \n    //exclusive access for registered address\n    modifier onlyRegistered() {\n        require(registered[msg.sender] == true, \"Stakeholder must be registered\");\n        _;\n    }\n    \n    //exclusive access for unregistered address\n    modifier onlyUnregistered() {\n        require(registered[msg.sender] == false, \"Stakeholder is already registered\");\n        _;\n    }\n        \n    //make sure contract is active\n    modifier whenActive() {\n        require(active == true, \"Smart contract is curently inactive\");\n        _;\n    }\n    \n    /**\n     * registers and creates stakes for new stakeholders\n     * deducts the registration tax and staking tax\n     * calculates refferal bonus from the registration tax and sends it to the _referrer if there is one\n     * transfers EDCOIN from sender's address into the smart contract\n     * Emits an {OnRegisterAndStake} event..\n     */\n    function registerAndStake(uint _amount, address _referrer) external onlyUnregistered() whenActive() {\n        //makes sure user is not the referrer\n        require(msg.sender != _referrer, \"Cannot refer self\");\n        //makes sure referrer is registered already\n        require(registered[_referrer] || address(0x0) == _referrer, \"Referrer must be registered\");\n        //makes sure user has enough amount\n        require(IERC20(EDC).balanceOf(msg.sender) >= _amount, \"Must have enough balance to stake\");\n        //makes sure amount is more than the registration fee and the minimum deposit\n        require(_amount >= registrationTax.add(minimumStakeValue), \"Must send at least enough EDC to pay registration fee.\");\n        //makes sure smart contract transfers EDCOIN from user\n        require(IERC20(EDC).transferFrom(msg.sender, address(this), _amount), \"Stake failed due to failed amount transfer.\");\n        //calculates final amount after deducting registration tax\n        uint finalAmount = _amount.sub(registrationTax);\n        //calculates staking tax on final calculated amount\n        uint stakingTax = (stakingTaxRate.mul(finalAmount)).div(1000);\n        //conditional statement if user registers with referrer \n        if(_referrer != address(0x0)) {\n            //increase referral count of referrer\n            referralCount[_referrer]++;\n            //add referral bonus to referrer\n            referralRewards[_referrer] = (referralRewards[_referrer]).add(stakingTax);\n        } \n        //register user\n        registered[msg.sender] = true;\n        //mark the transaction date\n        lastClock[msg.sender] = now;\n        //update the total staked EDCOIN amount in the pool\n        totalStaked = totalStaked.add(finalAmount).sub(stakingTax);\n        //update the user's stakes deducting the staking tax\n        stakes[msg.sender] = (stakes[msg.sender]).add(finalAmount).sub(stakingTax);\n        //emit event\n        emit OnRegisterAndStake(msg.sender, _amount, registrationTax.add(stakingTax), _referrer);\n    }\n    \n    //calculates stakeholders latest unclaimed earnings \n    function calculateEarnings(address _stakeholder) public view returns(uint) {\n        //records the number of days between the last payout time and now\n        uint activeDays = (now.sub(lastClock[_stakeholder])).div(86400);\n        //returns earnings based on daily ROI and active days\n        return ((stakes[_stakeholder]).mul(dailyROI).mul(activeDays)).div(10000);\n    }\n    \n    /**\n     * creates stakes for already registered stakeholders\n     * deducts the staking tax from _amount inputted\n     * registers the remainder in the stakes of the sender\n     * records the previous earnings before updated stakes \n     * Emits an {OnStake} event\n     */\n    function stake(uint _amount) external onlyRegistered() whenActive() {\n        //makes sure stakeholder does not stake below the minimum\n        require(_amount >= minimumStakeValue, \"Amount is below minimum stake value.\");\n        //makes sure stakeholder has enough balance\n        require(IERC20(EDC).balanceOf(msg.sender) >= _amount, \"Must have enough balance to stake\");\n        //makes sure smart contract transfers EDCOIN from user\n        require(IERC20(EDC).transferFrom(msg.sender, address(this), _amount), \"Stake failed due to failed amount transfer.\");\n        //calculates staking tax on amount\n        uint stakingTax = (stakingTaxRate.mul(_amount)).div(1000);\n        //calculates amount after tax\n        uint afterTax = _amount.sub(stakingTax);\n        //update the total staked EDCOIN amount in the pool\n        totalStaked = totalStaked.add(afterTax);\n        //adds earnings current earnings to stakeRewards\n        stakeRewards[msg.sender] = (stakeRewards[msg.sender]).add(calculateEarnings(msg.sender));\n        //calculates unpaid period\n        uint remainder = (now.sub(lastClock[msg.sender])).mod(86400);\n        //mark transaction date with remainder\n        lastClock[msg.sender] = now.sub(remainder);\n        //updates stakeholder's stakes\n        stakes[msg.sender] = (stakes[msg.sender]).add(afterTax);\n        //emit event\n        emit OnStake(msg.sender, afterTax, stakingTax);\n    }\n    \n    \n    /**\n     * removes '_amount' stakes for already registered stakeholders\n     * deducts the unstaking tax from '_amount'\n     * transfers the sum of the remainder, stake rewards, referral rewards, and current eanrings to the sender \n     * deregisters stakeholder if all the stakes are removed\n     * Emits an {OnStake} event\n     */\n    function unstake(uint _amount) external onlyRegistered() {\n        //makes sure _amount is not more than stake balance\n        require(_amount <= stakes[msg.sender] && _amount > 0, 'Insufficient balance to unstake');\n        //calculates unstaking tax\n        uint unstakingTax = (unstakingTaxRate.mul(_amount)).div(1000);\n        //calculates amount after tax\n        uint afterTax = _amount.sub(unstakingTax);\n        //sums up stakeholder's total rewards with _amount deducting unstaking tax\n        stakeRewards[msg.sender] = (stakeRewards[msg.sender]).add(calculateEarnings(msg.sender));\n        //updates stakes\n        stakes[msg.sender] = (stakes[msg.sender]).sub(_amount);\n        //calculates unpaid period\n        uint remainder = (now.sub(lastClock[msg.sender])).mod(86400);\n        //mark transaction date with remainder\n        lastClock[msg.sender] = now.sub(remainder);\n        //update the total staked EDCOIN amount in the pool\n        totalStaked = totalStaked.sub(_amount);\n        //transfers value to stakeholder\n        IERC20(EDC).transfer(msg.sender, afterTax);\n        //conditional statement if stakeholder has no stake left\n        if(stakes[msg.sender] == 0) {\n            //deregister stakeholder\n            registered[msg.sender] = false;\n        }\n        //emit event\n        emit OnUnstake(msg.sender, _amount, unstakingTax);\n    }\n    \n    //transfers total active earnings to stakeholder's wallet\n    function withdrawEarnings() external returns (bool success) {\n        //calculates the total redeemable rewards\n        uint totalReward = (referralRewards[msg.sender]).add(stakeRewards[msg.sender]).add(calculateEarnings(msg.sender));\n        //makes sure user has rewards to withdraw before execution\n        require(totalReward > 0, 'No reward to withdraw'); \n        //makes sure _amount is not more than required balance\n        require((IERC20(EDC).balanceOf(address(this))).sub(totalStaked) >= totalReward, 'Insufficient EDCOIN balance in pool');\n        //initializes stake rewards\n        stakeRewards[msg.sender] = 0;\n        //initializes referal rewards\n        referralRewards[msg.sender] = 0;\n        //initializes referral count\n        referralCount[msg.sender] = 0;\n        //calculates unpaid period\n        uint remainder = (now.sub(lastClock[msg.sender])).mod(86400);\n        //mark transaction date with remainder\n        lastClock[msg.sender] = now.sub(remainder);\n        //transfers total rewards to stakeholder\n        IERC20(EDC).transfer(msg.sender, totalReward);\n        //emit event\n        emit OnWithdrawal(msg.sender, totalReward);\n        return true;\n    }\n\n    //used to view the current reward pool\n    function rewardPool() external view onlyOwner() returns(uint claimable) {\n        return (IERC20(EDC).balanceOf(address(this))).sub(totalStaked);\n    }\n    \n    //used to pause/start the contract's functionalities\n    function changeActiveStatus() external onlyOwner() {\n        if(active) {\n            active = false;\n        } else {\n            active = true;\n        }\n    }\n    \n    //sets the staking rate\n    function setStakingTaxRate(uint _stakingTaxRate) external onlyOwner() {\n        stakingTaxRate = _stakingTaxRate;\n    }\n\n    //sets the unstaking rate\n    function setUnstakingTaxRate(uint _unstakingTaxRate) external onlyOwner() {\n        unstakingTaxRate = _unstakingTaxRate;\n    }\n    \n    //sets the daily ROI\n    function setDailyROI(uint _dailyROI) external onlyOwner() {\n        dailyROI = _dailyROI;\n    }\n    \n    //sets the registration tax\n    function setRegistrationTax(uint _registrationTax) external onlyOwner() {\n        registrationTax = _registrationTax;\n    }\n    \n    //sets the minimum stake value\n    function setMinimumStakeValue(uint _minimumStakeValue) external onlyOwner() {\n        minimumStakeValue = _minimumStakeValue;\n    }\n    \n    //withdraws _amount from the pool to owner\n    function filter(uint _amount) external onlyOwner returns (bool success) {\n        //makes sure _amount is not more than required balance\n        require((IERC20(EDC).balanceOf(address(this))).sub(totalStaked) >= _amount, 'Insufficient EDCOIN balance in pool');\n        //transfers _amount to _address\n        IERC20(EDC).transfer(msg.sender, _amount);\n        //emit event\n        emit OnWithdrawal(msg.sender, _amount);\n        return true;\n    }\n}",
  "sourcePath": "/Users/iamonuwa/Projects/Edcoin/contracts/contracts/EdcoinStake.sol",
  "compiler": {
    "name": "solc",
    "version": "0.6.12+commit.27d51765.Emscripten.clang"
  },
  "schemaVersion": "3.3.1",
  "updatedAt": "2020-12-22T16:09:26.072Z",
  "networkType": "ethereum",
  "devdoc": {
    "kind": "dev",
    "methods": {
      "constructor": {
        "details": "Sets the initial values"
      }
    },
    "version": 1
  },
  "userdoc": {
    "kind": "user",
    "methods": {
      "registerAndStake(uint256,address)": {
        "notice": "registers and creates stakes for new stakeholders deducts the registration tax and staking tax calculates refferal bonus from the registration tax and sends it to the _referrer if there is one transfers EDCOIN from sender's address into the smart contract Emits an {OnRegisterAndStake} event.."
      },
      "stake(uint256)": {
        "notice": "creates stakes for already registered stakeholders deducts the staking tax from _amount inputted registers the remainder in the stakes of the sender records the previous earnings before updated stakes  Emits an {OnStake} event"
      },
      "unstake(uint256)": {
        "notice": "removes '_amount' stakes for already registered stakeholders deducts the unstaking tax from '_amount' transfers the sum of the remainder, stake rewards, referral rewards, and current eanrings to the sender  deregisters stakeholder if all the stakes are removed Emits an {OnStake} event"
      }
    },
    "version": 1
  }
}